{
  "_format": "hh-sol-artifact-1",
  "contractName": "ArtCollection",
  "sourceName": "contracts/ArtCollection.sol",
  "abi": [
    {
      "inputs": [],
      "stateMutability": "nonpayable",
      "type": "constructor"
    },
    {
      "inputs": [
        {
          "internalType": "address",
          "name": "sender",
          "type": "address"
        },
        {
          "internalType": "uint256",
          "name": "tokenId",
          "type": "uint256"
        },
        {
          "internalType": "address",
          "name": "owner",
          "type": "address"
        }
      ],
      "name": "ERC721IncorrectOwner",
      "type": "error"
    },
    {
      "inputs": [
        {
          "internalType": "address",
          "name": "operator",
          "type": "address"
        },
        {
          "internalType": "uint256",
          "name": "tokenId",
          "type": "uint256"
        }
      ],
      "name": "ERC721InsufficientApproval",
      "type": "error"
    },
    {
      "inputs": [
        {
          "internalType": "address",
          "name": "approver",
          "type": "address"
        }
      ],
      "name": "ERC721InvalidApprover",
      "type": "error"
    },
    {
      "inputs": [
        {
          "internalType": "address",
          "name": "operator",
          "type": "address"
        }
      ],
      "name": "ERC721InvalidOperator",
      "type": "error"
    },
    {
      "inputs": [
        {
          "internalType": "address",
          "name": "owner",
          "type": "address"
        }
      ],
      "name": "ERC721InvalidOwner",
      "type": "error"
    },
    {
      "inputs": [
        {
          "internalType": "address",
          "name": "receiver",
          "type": "address"
        }
      ],
      "name": "ERC721InvalidReceiver",
      "type": "error"
    },
    {
      "inputs": [
        {
          "internalType": "address",
          "name": "sender",
          "type": "address"
        }
      ],
      "name": "ERC721InvalidSender",
      "type": "error"
    },
    {
      "inputs": [
        {
          "internalType": "uint256",
          "name": "tokenId",
          "type": "uint256"
        }
      ],
      "name": "ERC721NonexistentToken",
      "type": "error"
    },
    {
      "inputs": [
        {
          "internalType": "address",
          "name": "owner",
          "type": "address"
        }
      ],
      "name": "OwnableInvalidOwner",
      "type": "error"
    },
    {
      "inputs": [
        {
          "internalType": "address",
          "name": "account",
          "type": "address"
        }
      ],
      "name": "OwnableUnauthorizedAccount",
      "type": "error"
    },
    {
      "anonymous": false,
      "inputs": [
        {
          "indexed": true,
          "internalType": "address",
          "name": "owner",
          "type": "address"
        },
        {
          "indexed": true,
          "internalType": "address",
          "name": "approved",
          "type": "address"
        },
        {
          "indexed": true,
          "internalType": "uint256",
          "name": "tokenId",
          "type": "uint256"
        }
      ],
      "name": "Approval",
      "type": "event"
    },
    {
      "anonymous": false,
      "inputs": [
        {
          "indexed": true,
          "internalType": "address",
          "name": "owner",
          "type": "address"
        },
        {
          "indexed": true,
          "internalType": "address",
          "name": "operator",
          "type": "address"
        },
        {
          "indexed": false,
          "internalType": "bool",
          "name": "approved",
          "type": "bool"
        }
      ],
      "name": "ApprovalForAll",
      "type": "event"
    },
    {
      "anonymous": false,
      "inputs": [
        {
          "indexed": true,
          "internalType": "address",
          "name": "previousOwner",
          "type": "address"
        },
        {
          "indexed": true,
          "internalType": "address",
          "name": "newOwner",
          "type": "address"
        }
      ],
      "name": "OwnershipTransferred",
      "type": "event"
    },
    {
      "anonymous": false,
      "inputs": [
        {
          "indexed": true,
          "internalType": "address",
          "name": "from",
          "type": "address"
        },
        {
          "indexed": true,
          "internalType": "address",
          "name": "to",
          "type": "address"
        },
        {
          "indexed": true,
          "internalType": "uint256",
          "name": "tokenId",
          "type": "uint256"
        }
      ],
      "name": "Transfer",
      "type": "event"
    },
    {
      "inputs": [],
      "name": "MAX_ARTWORKS_PER_USER",
      "outputs": [
        {
          "internalType": "uint256",
          "name": "",
          "type": "uint256"
        }
      ],
      "stateMutability": "view",
      "type": "function"
    },
    {
      "inputs": [
        {
          "internalType": "address",
          "name": "to",
          "type": "address"
        },
        {
          "internalType": "uint256",
          "name": "tokenId",
          "type": "uint256"
        }
      ],
      "name": "approve",
      "outputs": [],
      "stateMutability": "nonpayable",
      "type": "function"
    },
    {
      "inputs": [
        {
          "internalType": "uint256",
          "name": "",
          "type": "uint256"
        }
      ],
      "name": "artworks",
      "outputs": [
        {
          "internalType": "string",
          "name": "name",
          "type": "string"
        },
        {
          "internalType": "enum ArtCollection.ArtType",
          "name": "artType",
          "type": "uint8"
        },
        {
          "internalType": "string",
          "name": "artist",
          "type": "string"
        },
        {
          "internalType": "string",
          "name": "descriptionHash",
          "type": "string"
        },
        {
          "internalType": "uint256",
          "name": "price",
          "type": "uint256"
        },
        {
          "internalType": "bool",
          "name": "forSale",
          "type": "bool"
        }
      ],
      "stateMutability": "view",
      "type": "function"
    },
    {
      "inputs": [
        {
          "internalType": "address",
          "name": "owner",
          "type": "address"
        }
      ],
      "name": "balanceOf",
      "outputs": [
        {
          "internalType": "uint256",
          "name": "",
          "type": "uint256"
        }
      ],
      "stateMutability": "view",
      "type": "function"
    },
    {
      "inputs": [
        {
          "internalType": "uint256",
          "name": "_tokenId",
          "type": "uint256"
        }
      ],
      "name": "buyArtWork",
      "outputs": [],
      "stateMutability": "payable",
      "type": "function"
    },
    {
      "inputs": [],
      "name": "getAllArtworks",
      "outputs": [
        {
          "components": [
            {
              "internalType": "string",
              "name": "name",
              "type": "string"
            },
            {
              "internalType": "enum ArtCollection.ArtType",
              "name": "artType",
              "type": "uint8"
            },
            {
              "internalType": "string",
              "name": "artist",
              "type": "string"
            },
            {
              "internalType": "string",
              "name": "descriptionHash",
              "type": "string"
            },
            {
              "internalType": "uint256",
              "name": "price",
              "type": "uint256"
            },
            {
              "internalType": "bool",
              "name": "forSale",
              "type": "bool"
            }
          ],
          "internalType": "struct ArtCollection.ArtWork[]",
          "name": "",
          "type": "tuple[]"
        }
      ],
      "stateMutability": "view",
      "type": "function"
    },
    {
      "inputs": [
        {
          "internalType": "uint256",
          "name": "tokenId",
          "type": "uint256"
        }
      ],
      "name": "getApproved",
      "outputs": [
        {
          "internalType": "address",
          "name": "",
          "type": "address"
        }
      ],
      "stateMutability": "view",
      "type": "function"
    },
    {
      "inputs": [
        {
          "internalType": "uint256",
          "name": "_tokenId",
          "type": "uint256"
        }
      ],
      "name": "getArtWork",
      "outputs": [
        {
          "components": [
            {
              "internalType": "string",
              "name": "name",
              "type": "string"
            },
            {
              "internalType": "enum ArtCollection.ArtType",
              "name": "artType",
              "type": "uint8"
            },
            {
              "internalType": "string",
              "name": "artist",
              "type": "string"
            },
            {
              "internalType": "string",
              "name": "descriptionHash",
              "type": "string"
            },
            {
              "internalType": "uint256",
              "name": "price",
              "type": "uint256"
            },
            {
              "internalType": "bool",
              "name": "forSale",
              "type": "bool"
            }
          ],
          "internalType": "struct ArtCollection.ArtWork",
          "name": "",
          "type": "tuple"
        }
      ],
      "stateMutability": "view",
      "type": "function"
    },
    {
      "inputs": [
        {
          "internalType": "uint256",
          "name": "_tokenId",
          "type": "uint256"
        }
      ],
      "name": "getPreviousOwners",
      "outputs": [
        {
          "internalType": "address[]",
          "name": "",
          "type": "address[]"
        }
      ],
      "stateMutability": "view",
      "type": "function"
    },
    {
      "inputs": [],
      "name": "getUserArtCount",
      "outputs": [
        {
          "internalType": "uint256",
          "name": "",
          "type": "uint256"
        }
      ],
      "stateMutability": "view",
      "type": "function"
    },
    {
      "inputs": [
        {
          "internalType": "address",
          "name": "owner",
          "type": "address"
        },
        {
          "internalType": "address",
          "name": "operator",
          "type": "address"
        }
      ],
      "name": "isApprovedForAll",
      "outputs": [
        {
          "internalType": "bool",
          "name": "",
          "type": "bool"
        }
      ],
      "stateMutability": "view",
      "type": "function"
    },
    {
      "inputs": [
        {
          "internalType": "address",
          "name": "",
          "type": "address"
        }
      ],
      "name": "lastTransactionTime",
      "outputs": [
        {
          "internalType": "uint256",
          "name": "",
          "type": "uint256"
        }
      ],
      "stateMutability": "view",
      "type": "function"
    },
    {
      "inputs": [
        {
          "internalType": "string",
          "name": "_name",
          "type": "string"
        },
        {
          "internalType": "enum ArtCollection.ArtType",
          "name": "_artType",
          "type": "uint8"
        },
        {
          "internalType": "string",
          "name": "_artist",
          "type": "string"
        },
        {
          "internalType": "string",
          "name": "_descriptionHash",
          "type": "string"
        },
        {
          "internalType": "uint256",
          "name": "_price",
          "type": "uint256"
        }
      ],
      "name": "mintArtWork",
      "outputs": [],
      "stateMutability": "nonpayable",
      "type": "function"
    },
    {
      "inputs": [],
      "name": "name",
      "outputs": [
        {
          "internalType": "string",
          "name": "",
          "type": "string"
        }
      ],
      "stateMutability": "view",
      "type": "function"
    },
    {
      "inputs": [],
      "name": "owner",
      "outputs": [
        {
          "internalType": "address",
          "name": "",
          "type": "address"
        }
      ],
      "stateMutability": "view",
      "type": "function"
    },
    {
      "inputs": [
        {
          "internalType": "uint256",
          "name": "tokenId",
          "type": "uint256"
        }
      ],
      "name": "ownerOf",
      "outputs": [
        {
          "internalType": "address",
          "name": "",
          "type": "address"
        }
      ],
      "stateMutability": "view",
      "type": "function"
    },
    {
      "inputs": [
        {
          "internalType": "uint256",
          "name": "",
          "type": "uint256"
        },
        {
          "internalType": "uint256",
          "name": "",
          "type": "uint256"
        }
      ],
      "name": "previousOwners",
      "outputs": [
        {
          "internalType": "address",
          "name": "",
          "type": "address"
        }
      ],
      "stateMutability": "view",
      "type": "function"
    },
    {
      "inputs": [
        {
          "internalType": "uint256",
          "name": "_tokenId",
          "type": "uint256"
        },
        {
          "internalType": "uint256",
          "name": "_price",
          "type": "uint256"
        }
      ],
      "name": "putArtWorkForSale",
      "outputs": [],
      "stateMutability": "nonpayable",
      "type": "function"
    },
    {
      "inputs": [
        {
          "internalType": "uint256",
          "name": "_tokenId",
          "type": "uint256"
        }
      ],
      "name": "removeFromSale",
      "outputs": [],
      "stateMutability": "nonpayable",
      "type": "function"
    },
    {
      "inputs": [],
      "name": "renounceOwnership",
      "outputs": [],
      "stateMutability": "nonpayable",
      "type": "function"
    },
    {
      "inputs": [
        {
          "internalType": "address",
          "name": "from",
          "type": "address"
        },
        {
          "internalType": "address",
          "name": "to",
          "type": "address"
        },
        {
          "internalType": "uint256",
          "name": "tokenId",
          "type": "uint256"
        }
      ],
      "name": "safeTransferFrom",
      "outputs": [],
      "stateMutability": "nonpayable",
      "type": "function"
    },
    {
      "inputs": [
        {
          "internalType": "address",
          "name": "from",
          "type": "address"
        },
        {
          "internalType": "address",
          "name": "to",
          "type": "address"
        },
        {
          "internalType": "uint256",
          "name": "tokenId",
          "type": "uint256"
        },
        {
          "internalType": "bytes",
          "name": "data",
          "type": "bytes"
        }
      ],
      "name": "safeTransferFrom",
      "outputs": [],
      "stateMutability": "nonpayable",
      "type": "function"
    },
    {
      "inputs": [
        {
          "internalType": "address",
          "name": "operator",
          "type": "address"
        },
        {
          "internalType": "bool",
          "name": "approved",
          "type": "bool"
        }
      ],
      "name": "setApprovalForAll",
      "outputs": [],
      "stateMutability": "nonpayable",
      "type": "function"
    },
    {
      "inputs": [
        {
          "internalType": "bytes4",
          "name": "interfaceId",
          "type": "bytes4"
        }
      ],
      "name": "supportsInterface",
      "outputs": [
        {
          "internalType": "bool",
          "name": "",
          "type": "bool"
        }
      ],
      "stateMutability": "view",
      "type": "function"
    },
    {
      "inputs": [],
      "name": "symbol",
      "outputs": [
        {
          "internalType": "string",
          "name": "",
          "type": "string"
        }
      ],
      "stateMutability": "view",
      "type": "function"
    },
    {
      "inputs": [],
      "name": "tokenId",
      "outputs": [
        {
          "internalType": "uint256",
          "name": "",
          "type": "uint256"
        }
      ],
      "stateMutability": "view",
      "type": "function"
    },
    {
      "inputs": [
        {
          "internalType": "uint256",
          "name": "tokenId",
          "type": "uint256"
        }
      ],
      "name": "tokenURI",
      "outputs": [
        {
          "internalType": "string",
          "name": "",
          "type": "string"
        }
      ],
      "stateMutability": "view",
      "type": "function"
    },
    {
      "inputs": [
        {
          "internalType": "address",
          "name": "from",
          "type": "address"
        },
        {
          "internalType": "address",
          "name": "to",
          "type": "address"
        },
        {
          "internalType": "uint256",
          "name": "tokenId",
          "type": "uint256"
        }
      ],
      "name": "transferFrom",
      "outputs": [],
      "stateMutability": "nonpayable",
      "type": "function"
    },
    {
      "inputs": [
        {
          "internalType": "address",
          "name": "newOwner",
          "type": "address"
        }
      ],
      "name": "transferOwnership",
      "outputs": [],
      "stateMutability": "nonpayable",
      "type": "function"
    },
    {
      "inputs": [
        {
          "internalType": "address",
          "name": "",
          "type": "address"
        }
      ],
      "name": "userArtCount",
      "outputs": [
        {
          "internalType": "uint256",
          "name": "",
          "type": "uint256"
        }
      ],
      "stateMutability": "view",
      "type": "function"
    }
  ],
  "bytecode": "0x6080604052600060075534801561001557600080fd5b506040518060400160405280600d81526020017f417274436f6c6c656374696f6e000000000000000000000000000000000000008152506040518060400160405280600381526020017f415254000000000000000000000000000000000000000000000000000000000081525033600073ffffffffffffffffffffffffffffffffffffffff168173ffffffffffffffffffffffffffffffffffffffff16036100f55760006040517f1e4fbdf70000000000000000000000000000000000000000000000000000000081526004016100ec9190610231565b60405180910390fd5b6101048161012c60201b60201c565b508160019081610114919061049c565b508060029081610124919061049c565b50505061056e565b60008060009054906101000a900473ffffffffffffffffffffffffffffffffffffffff169050816000806101000a81548173ffffffffffffffffffffffffffffffffffffffff021916908373ffffffffffffffffffffffffffffffffffffffff1602179055508173ffffffffffffffffffffffffffffffffffffffff168173ffffffffffffffffffffffffffffffffffffffff167f8be0079c531659141344cd1fd0a4f28419497f9722a3daafe3b4186f6b6457e060405160405180910390a35050565b600073ffffffffffffffffffffffffffffffffffffffff82169050919050565b600061021b826101f0565b9050919050565b61022b81610210565b82525050565b60006020820190506102466000830184610222565b92915050565b600081519050919050565b7f4e487b7100000000000000000000000000000000000000000000000000000000600052604160045260246000fd5b7f4e487b7100000000000000000000000000000000000000000000000000000000600052602260045260246000fd5b600060028204905060018216806102cd57607f821691505b6020821081036102e0576102df610286565b5b50919050565b60008190508160005260206000209050919050565b60006020601f8301049050919050565b600082821b905092915050565b6000600883026103487fffffffffffffffffffffffffffffffffffffffffffffffffffffffffffffffff8261030b565b610352868361030b565b95508019841693508086168417925050509392505050565b6000819050919050565b6000819050919050565b600061039961039461038f8461036a565b610374565b61036a565b9050919050565b6000819050919050565b6103b38361037e565b6103c76103bf826103a0565b848454610318565b825550505050565b600090565b6103dc6103cf565b6103e78184846103aa565b505050565b5b8181101561040b576104006000826103d4565b6001810190506103ed565b5050565b601f82111561045057610421816102e6565b61042a846102fb565b81016020851015610439578190505b61044d610445856102fb565b8301826103ec565b50505b505050565b600082821c905092915050565b600061047360001984600802610455565b1980831691505092915050565b600061048c8383610462565b9150826002028217905092915050565b6104a58261024c565b67ffffffffffffffff8111156104be576104bd610257565b5b6104c882546102b5565b6104d382828561040f565b600060209050601f83116001811461050657600084156104f4578287015190505b6104fe8582610480565b865550610566565b601f198416610514866102e6565b60005b8281101561053c57848901518255600182019150602085019450602081019050610517565b868310156105595784890151610555601f891682610462565b8355505b6001600288020188555050505b505050505050565b6146ef8061057d6000396000f3fe6080604052600436106101cd5760003560e01c80638da5cb5b116100f7578063c190c58911610095578063e985e9c511610064578063e985e9c5146106a4578063edd33831146106e1578063f1a0995c1461071e578063f2fde38b1461075b576101cd565b8063c190c589146105d4578063c87b56dd146105ff578063e7451a401461063c578063e75b207314610667576101cd565b8063a22cb465116100d1578063a22cb46514610508578063b20f739014610531578063b54fb04a1461056e578063b88d4fde146105ab576101cd565b80638da5cb5b1461048757806395d89b41146104b25780639c0cc30c146104dd576101cd565b806337cb407a1161016f5780636352211e1161013e5780636352211e146103da57806370a0823114610417578063715018a6146104545780638ca9482b1461046b576101cd565b806337cb407a1461031d57806342842e0e146103465780634b6026731461036f578063577488b1146103b1576101cd565b8063095ea7b3116101ab578063095ea7b3146102775780631361a3b6146102a057806317d70f7c146102c957806323b872dd146102f4576101cd565b806301ffc9a7146101d257806306fdde031461020f578063081812fc1461023a575b600080fd5b3480156101de57600080fd5b506101f960048036038101906101f49190613240565b610784565b6040516102069190613288565b60405180910390f35b34801561021b57600080fd5b50610224610866565b6040516102319190613333565b60405180910390f35b34801561024657600080fd5b50610261600480360381019061025c919061338b565b6108f8565b60405161026e91906133f9565b60405180910390f35b34801561028357600080fd5b5061029e60048036038101906102999190613440565b610914565b005b3480156102ac57600080fd5b506102c760048036038101906102c2919061338b565b61092a565b005b3480156102d557600080fd5b506102de610ab9565b6040516102eb919061348f565b60405180910390f35b34801561030057600080fd5b5061031b600480360381019061031691906134aa565b610abf565b005b34801561032957600080fd5b50610344600480360381019061033f91906134fd565b610bc1565b005b34801561035257600080fd5b5061036d600480360381019061036891906134aa565b610cca565b005b34801561037b57600080fd5b506103966004803603810190610391919061338b565b610cea565b6040516103a8969594939291906135b4565b60405180910390f35b3480156103bd57600080fd5b506103d860048036038101906103d39190613784565b610ed8565b005b3480156103e657600080fd5b5061040160048036038101906103fc919061338b565b611088565b60405161040e91906133f9565b60405180910390f35b34801561042357600080fd5b5061043e60048036038101906104399190613853565b61109a565b60405161044b919061348f565b60405180910390f35b34801561046057600080fd5b50610469611154565b005b6104856004803603810190610480919061338b565b611168565b005b34801561049357600080fd5b5061049c6117e8565b6040516104a991906133f9565b60405180910390f35b3480156104be57600080fd5b506104c7611811565b6040516104d49190613333565b60405180910390f35b3480156104e957600080fd5b506104f26118a3565b6040516104ff9190613a50565b60405180910390f35b34801561051457600080fd5b5061052f600480360381019061052a9190613a9e565b611b73565b005b34801561053d57600080fd5b5061055860048036038101906105539190613853565b611b89565b604051610565919061348f565b60405180910390f35b34801561057a57600080fd5b50610595600480360381019061059091906134fd565b611ba1565b6040516105a291906133f9565b60405180910390f35b3480156105b757600080fd5b506105d260048036038101906105cd9190613b7f565b611bef565b005b3480156105e057600080fd5b506105e9611c14565b6040516105f6919061348f565b60405180910390f35b34801561060b57600080fd5b506106266004803603810190610621919061338b565b611c19565b6040516106339190613333565b60405180910390f35b34801561064857600080fd5b50610651611c82565b60405161065e919061348f565b60405180910390f35b34801561067357600080fd5b5061068e60048036038101906106899190613853565b611cc9565b60405161069b919061348f565b60405180910390f35b3480156106b057600080fd5b506106cb60048036038101906106c69190613c02565b611ce1565b6040516106d89190613288565b60405180910390f35b3480156106ed57600080fd5b506107086004803603810190610703919061338b565b611d75565b6040516107159190613cd9565b60405180910390f35b34801561072a57600080fd5b506107456004803603810190610740919061338b565b61202e565b6040516107529190613db9565b60405180910390f35b34801561076757600080fd5b50610782600480360381019061077d9190613853565b6120cf565b005b60007f80ac58cd000000000000000000000000000000000000000000000000000000007bffffffffffffffffffffffffffffffffffffffffffffffffffffffff1916827bffffffffffffffffffffffffffffffffffffffffffffffffffffffff1916148061084f57507f5b5e139f000000000000000000000000000000000000000000000000000000007bffffffffffffffffffffffffffffffffffffffffffffffffffffffff1916827bffffffffffffffffffffffffffffffffffffffffffffffffffffffff1916145b8061085f575061085e82612155565b5b9050919050565b60606001805461087590613e0a565b80601f01602080910402602001604051908101604052809291908181526020018280546108a190613e0a565b80156108ee5780601f106108c3576101008083540402835291602001916108ee565b820191906000526020600020905b8154815290600101906020018083116108d157829003601f168201915b5050505050905090565b6000610903826121bf565b5061090d82612247565b9050919050565b6109268282610921612284565b61228c565b5050565b803373ffffffffffffffffffffffffffffffffffffffff1661094b82611088565b73ffffffffffffffffffffffffffffffffffffffff16146109a1576040517f08c379a000000000000000000000000000000000000000000000000000000000815260040161099890613ead565b60405180910390fd5b600a600960003373ffffffffffffffffffffffffffffffffffffffff1673ffffffffffffffffffffffffffffffffffffffff1681526020019081526020016000205410610a23576040517f08c379a0000000000000000000000000000000000000000000000000000000008152600401610a1a90613f3f565b60405180910390fd5b6008600083815260200190815260200160002060050160009054906101000a900460ff16610a86576040517f08c379a0000000000000000000000000000000000000000000000000000000008152600401610a7d90613fab565b60405180910390fd5b60006008600084815260200190815260200160002060050160006101000a81548160ff0219169083151502179055505050565b60075481565b600073ffffffffffffffffffffffffffffffffffffffff168273ffffffffffffffffffffffffffffffffffffffff1603610b315760006040517f64a0ae92000000000000000000000000000000000000000000000000000000008152600401610b2891906133f9565b60405180910390fd5b6000610b458383610b40612284565b61229e565b90508373ffffffffffffffffffffffffffffffffffffffff168173ffffffffffffffffffffffffffffffffffffffff1614610bbb578382826040517f64283d7b000000000000000000000000000000000000000000000000000000008152600401610bb293929190613fcb565b60405180910390fd5b50505050565b813373ffffffffffffffffffffffffffffffffffffffff16610be282611088565b73ffffffffffffffffffffffffffffffffffffffff1614610c38576040517f08c379a0000000000000000000000000000000000000000000000000000000008152600401610c2f90613ead565b60405180910390fd5b60008211610c7b576040517f08c379a0000000000000000000000000000000000000000000000000000000008152600401610c729061404e565b60405180910390fd5b60016008600085815260200190815260200160002060050160006101000a81548160ff021916908315150217905550816008600085815260200190815260200160002060040181905550505050565b610ce583838360405180602001604052806000815250611bef565b505050565b6008602052806000526040600020600091509050806000018054610d0d90613e0a565b80601f0160208091040260200160405190810160405280929190818152602001828054610d3990613e0a565b8015610d865780601f10610d5b57610100808354040283529160200191610d86565b820191906000526020600020905b815481529060010190602001808311610d6957829003601f168201915b5050505050908060010160009054906101000a900460ff1690806002018054610dae90613e0a565b80601f0160208091040260200160405190810160405280929190818152602001828054610dda90613e0a565b8015610e275780601f10610dfc57610100808354040283529160200191610e27565b820191906000526020600020905b815481529060010190602001808311610e0a57829003601f168201915b505050505090806003018054610e3c90613e0a565b80601f0160208091040260200160405190810160405280929190818152602001828054610e6890613e0a565b8015610eb55780601f10610e8a57610100808354040283529160200191610eb5565b820191906000526020600020905b815481529060010190602001808311610e9857829003601f168201915b5050505050908060040154908060050160009054906101000a900460ff16905086565b6040518060c00160405280868152602001856004811115610efc57610efb61353d565b5b8152602001848152602001838152602001828152602001600115158152506008600060075481526020019081526020016000206000820151816000019081610f44919061421a565b5060208201518160010160006101000a81548160ff02191690836004811115610f7057610f6f61353d565b5b02179055506040820151816002019081610f8a919061421a565b506060820151816003019081610fa0919061421a565b506080820151816004015560a08201518160050160006101000a81548160ff021916908315150217905550905050610fda336007546124b8565b60076000815480929190610fed9061431b565b91905055506001600960003373ffffffffffffffffffffffffffffffffffffffff1673ffffffffffffffffffffffffffffffffffffffff1681526020019081526020016000205461103e9190614363565b600960003373ffffffffffffffffffffffffffffffffffffffff1673ffffffffffffffffffffffffffffffffffffffff168152602001908152602001600020819055505050505050565b6000611093826121bf565b9050919050565b60008073ffffffffffffffffffffffffffffffffffffffff168273ffffffffffffffffffffffffffffffffffffffff160361110d5760006040517f89c62b6400000000000000000000000000000000000000000000000000000000815260040161110491906133f9565b60405180910390fd5b600460008373ffffffffffffffffffffffffffffffffffffffff1673ffffffffffffffffffffffffffffffffffffffff168152602001908152602001600020549050919050565b61115c6124d6565b611166600061255d565b565b61012c600b60003373ffffffffffffffffffffffffffffffffffffffff1673ffffffffffffffffffffffffffffffffffffffff168152602001908152602001600020546111b59190614363565b4210156111f7576040517f08c379a00000000000000000000000000000000000000000000000000000000081526004016111ee90614409565b60405180910390fd5b600a600960003373ffffffffffffffffffffffffffffffffffffffff1673ffffffffffffffffffffffffffffffffffffffff1681526020019081526020016000205410611279576040517f08c379a000000000000000000000000000000000000000000000000000000000815260040161127090613f3f565b60405180910390fd5b6000600860008381526020019081526020016000206040518060c00160405290816000820180546112a990613e0a565b80601f01602080910402602001604051908101604052809291908181526020018280546112d590613e0a565b80156113225780601f106112f757610100808354040283529160200191611322565b820191906000526020600020905b81548152906001019060200180831161130557829003601f168201915b505050505081526020016001820160009054906101000a900460ff1660048111156113505761134f61353d565b5b60048111156113625761136161353d565b5b815260200160028201805461137690613e0a565b80601f01602080910402602001604051908101604052809291908181526020018280546113a290613e0a565b80156113ef5780601f106113c4576101008083540402835291602001916113ef565b820191906000526020600020905b8154815290600101906020018083116113d257829003601f168201915b5050505050815260200160038201805461140890613e0a565b80601f016020809104026020016040519081016040528092919081815260200182805461143490613e0a565b80156114815780601f1061145657610100808354040283529160200191611481565b820191906000526020600020905b81548152906001019060200180831161146457829003601f168201915b50505050508152602001600482015481526020016005820160009054906101000a900460ff16151515158152505090508060a001516114f5576040517f08c379a00000000000000000000000000000000000000000000000000000000081526004016114ec90613fab565b60405180910390fd5b8060800151341461153b576040517f08c379a00000000000000000000000000000000000000000000000000000000081526004016115329061449b565b60405180910390fd5b600061154683611088565b90508073ffffffffffffffffffffffffffffffffffffffff166108fc349081150290604051600060405180830381858888f1935050505015801561158e573d6000803e3d6000fd5b5061159a813385612621565b600a6000848152602001908152602001600020819080600181540180825580915050600190039060005260206000200160009091909190916101000a81548173ffffffffffffffffffffffffffffffffffffffff021916908373ffffffffffffffffffffffffffffffffffffffff16021790555060006008600085815260200190815260200160002060050160006101000a81548160ff0219169083151502179055506001600960008373ffffffffffffffffffffffffffffffffffffffff1673ffffffffffffffffffffffffffffffffffffffff1681526020019081526020016000205461168991906144bb565b600960008373ffffffffffffffffffffffffffffffffffffffff1673ffffffffffffffffffffffffffffffffffffffff168152602001908152602001600020819055506001600960003373ffffffffffffffffffffffffffffffffffffffff1673ffffffffffffffffffffffffffffffffffffffff168152602001908152602001600020546117189190614363565b600960003373ffffffffffffffffffffffffffffffffffffffff1673ffffffffffffffffffffffffffffffffffffffff1681526020019081526020016000208190555042600b60003373ffffffffffffffffffffffffffffffffffffffff1673ffffffffffffffffffffffffffffffffffffffff1681526020019081526020016000208190555042600b60008373ffffffffffffffffffffffffffffffffffffffff1673ffffffffffffffffffffffffffffffffffffffff16815260200190815260200160002081905550505050565b60008060009054906101000a900473ffffffffffffffffffffffffffffffffffffffff16905090565b60606002805461182090613e0a565b80601f016020809104026020016040519081016040528092919081815260200182805461184c90613e0a565b80156118995780601f1061186e57610100808354040283529160200191611899565b820191906000526020600020905b81548152906001019060200180831161187c57829003601f168201915b5050505050905090565b6060600060075467ffffffffffffffff8111156118c3576118c2613634565b5b6040519080825280602002602001820160405280156118fc57816020015b6118e961318a565b8152602001906001900390816118e15790505b50905060005b600754811015611b6b57600860008281526020019081526020016000206040518060c001604052908160008201805461193a90613e0a565b80601f016020809104026020016040519081016040528092919081815260200182805461196690613e0a565b80156119b35780601f10611988576101008083540402835291602001916119b3565b820191906000526020600020905b81548152906001019060200180831161199657829003601f168201915b505050505081526020016001820160009054906101000a900460ff1660048111156119e1576119e061353d565b5b60048111156119f3576119f261353d565b5b8152602001600282018054611a0790613e0a565b80601f0160208091040260200160405190810160405280929190818152602001828054611a3390613e0a565b8015611a805780601f10611a5557610100808354040283529160200191611a80565b820191906000526020600020905b815481529060010190602001808311611a6357829003601f168201915b50505050508152602001600382018054611a9990613e0a565b80601f0160208091040260200160405190810160405280929190818152602001828054611ac590613e0a565b8015611b125780601f10611ae757610100808354040283529160200191611b12565b820191906000526020600020905b815481529060010190602001808311611af557829003601f168201915b50505050508152602001600482015481526020016005820160009054906101000a900460ff161515151581525050828281518110611b5357611b526144ef565b5b60200260200101819052508080600101915050611902565b508091505090565b611b85611b7e612284565b838361278e565b5050565b60096020528060005260406000206000915090505481565b600a6020528160005260406000208181548110611bbd57600080fd5b906000526020600020016000915091509054906101000a900473ffffffffffffffffffffffffffffffffffffffff1681565b611bfa848484610abf565b611c0e611c05612284565b858585856128fd565b50505050565b600a81565b6060611c24826121bf565b506000611c2f612aae565b90506000815111611c4f5760405180602001604052806000815250611c7a565b80611c5984612ac5565b604051602001611c6a92919061455a565b6040516020818303038152906040525b915050919050565b6000600960003373ffffffffffffffffffffffffffffffffffffffff1673ffffffffffffffffffffffffffffffffffffffff16815260200190815260200160002054905090565b600b6020528060005260406000206000915090505481565b6000600660008473ffffffffffffffffffffffffffffffffffffffff1673ffffffffffffffffffffffffffffffffffffffff16815260200190815260200160002060008373ffffffffffffffffffffffffffffffffffffffff1673ffffffffffffffffffffffffffffffffffffffff16815260200190815260200160002060009054906101000a900460ff16905092915050565b611d7d61318a565b3373ffffffffffffffffffffffffffffffffffffffff16611d9d83611088565b73ffffffffffffffffffffffffffffffffffffffff1614611df3576040517f08c379a0000000000000000000000000000000000000000000000000000000008152600401611dea90613ead565b60405180910390fd5b600860008381526020019081526020016000206040518060c0016040529081600082018054611e2190613e0a565b80601f0160208091040260200160405190810160405280929190818152602001828054611e4d90613e0a565b8015611e9a5780601f10611e6f57610100808354040283529160200191611e9a565b820191906000526020600020905b815481529060010190602001808311611e7d57829003601f168201915b505050505081526020016001820160009054906101000a900460ff166004811115611ec857611ec761353d565b5b6004811115611eda57611ed961353d565b5b8152602001600282018054611eee90613e0a565b80601f0160208091040260200160405190810160405280929190818152602001828054611f1a90613e0a565b8015611f675780601f10611f3c57610100808354040283529160200191611f67565b820191906000526020600020905b815481529060010190602001808311611f4a57829003601f168201915b50505050508152602001600382018054611f8090613e0a565b80601f0160208091040260200160405190810160405280929190818152602001828054611fac90613e0a565b8015611ff95780601f10611fce57610100808354040283529160200191611ff9565b820191906000526020600020905b815481529060010190602001808311611fdc57829003601f168201915b50505050508152602001600482015481526020016005820160009054906101000a900460ff1615151515815250509050919050565b6060600a60008381526020019081526020016000208054806020026020016040519081016040528092919081815260200182805480156120c357602002820191906000526020600020905b8160009054906101000a900473ffffffffffffffffffffffffffffffffffffffff1673ffffffffffffffffffffffffffffffffffffffff1681526020019060010190808311612079575b50505050509050919050565b6120d76124d6565b600073ffffffffffffffffffffffffffffffffffffffff168173ffffffffffffffffffffffffffffffffffffffff16036121495760006040517f1e4fbdf700000000000000000000000000000000000000000000000000000000815260040161214091906133f9565b60405180910390fd5b6121528161255d565b50565b60007f01ffc9a7000000000000000000000000000000000000000000000000000000007bffffffffffffffffffffffffffffffffffffffffffffffffffffffff1916827bffffffffffffffffffffffffffffffffffffffffffffffffffffffff1916149050919050565b6000806121cb83612b93565b9050600073ffffffffffffffffffffffffffffffffffffffff168173ffffffffffffffffffffffffffffffffffffffff160361223e57826040517f7e273289000000000000000000000000000000000000000000000000000000008152600401612235919061348f565b60405180910390fd5b80915050919050565b60006005600083815260200190815260200160002060009054906101000a900473ffffffffffffffffffffffffffffffffffffffff169050919050565b600033905090565b6122998383836001612bd0565b505050565b6000806122aa84612b93565b9050600073ffffffffffffffffffffffffffffffffffffffff168373ffffffffffffffffffffffffffffffffffffffff16146122ec576122eb818486612d95565b5b600073ffffffffffffffffffffffffffffffffffffffff168173ffffffffffffffffffffffffffffffffffffffff161461237d5761232e600085600080612bd0565b6001600460008373ffffffffffffffffffffffffffffffffffffffff1673ffffffffffffffffffffffffffffffffffffffff168152602001908152602001600020600082825403925050819055505b600073ffffffffffffffffffffffffffffffffffffffff168573ffffffffffffffffffffffffffffffffffffffff1614612400576001600460008773ffffffffffffffffffffffffffffffffffffffff1673ffffffffffffffffffffffffffffffffffffffff168152602001908152602001600020600082825401925050819055505b846003600086815260200190815260200160002060006101000a81548173ffffffffffffffffffffffffffffffffffffffff021916908373ffffffffffffffffffffffffffffffffffffffff160217905550838573ffffffffffffffffffffffffffffffffffffffff168273ffffffffffffffffffffffffffffffffffffffff167fddf252ad1be2c89b69c2b068fc378daa952ba7f163c4a11628f55a4df523b3ef60405160405180910390a4809150509392505050565b6124d2828260405180602001604052806000815250612e59565b5050565b6124de612284565b73ffffffffffffffffffffffffffffffffffffffff166124fc6117e8565b73ffffffffffffffffffffffffffffffffffffffff161461255b5761251f612284565b6040517f118cdaa700000000000000000000000000000000000000000000000000000000815260040161255291906133f9565b60405180910390fd5b565b60008060009054906101000a900473ffffffffffffffffffffffffffffffffffffffff169050816000806101000a81548173ffffffffffffffffffffffffffffffffffffffff021916908373ffffffffffffffffffffffffffffffffffffffff1602179055508173ffffffffffffffffffffffffffffffffffffffff168173ffffffffffffffffffffffffffffffffffffffff167f8be0079c531659141344cd1fd0a4f28419497f9722a3daafe3b4186f6b6457e060405160405180910390a35050565b600073ffffffffffffffffffffffffffffffffffffffff168273ffffffffffffffffffffffffffffffffffffffff16036126935760006040517f64a0ae9200000000000000000000000000000000000000000000000000000000815260040161268a91906133f9565b60405180910390fd5b60006126a18383600061229e565b9050600073ffffffffffffffffffffffffffffffffffffffff168173ffffffffffffffffffffffffffffffffffffffff160361271457816040517f7e27328900000000000000000000000000000000000000000000000000000000815260040161270b919061348f565b60405180910390fd5b8373ffffffffffffffffffffffffffffffffffffffff168173ffffffffffffffffffffffffffffffffffffffff1614612788578382826040517f64283d7b00000000000000000000000000000000000000000000000000000000815260040161277f93929190613fcb565b60405180910390fd5b50505050565b600073ffffffffffffffffffffffffffffffffffffffff168273ffffffffffffffffffffffffffffffffffffffff16036127ff57816040517f5b08ba180000000000000000000000000000000000000000000000000000000081526004016127f691906133f9565b60405180910390fd5b80600660008573ffffffffffffffffffffffffffffffffffffffff1673ffffffffffffffffffffffffffffffffffffffff16815260200190815260200160002060008473ffffffffffffffffffffffffffffffffffffffff1673ffffffffffffffffffffffffffffffffffffffff16815260200190815260200160002060006101000a81548160ff0219169083151502179055508173ffffffffffffffffffffffffffffffffffffffff168373ffffffffffffffffffffffffffffffffffffffff167f17307eab39ab6107e8899845ad3d59bd9653f200f220920489ca2b5937696c31836040516128f09190613288565b60405180910390a3505050565b60008373ffffffffffffffffffffffffffffffffffffffff163b1115612aa7578273ffffffffffffffffffffffffffffffffffffffff1663150b7a02868685856040518563ffffffff1660e01b815260040161295c94939291906145d3565b6020604051808303816000875af192505050801561299857506040513d601f19601f820116820180604052508101906129959190614634565b60015b612a1c573d80600081146129c8576040519150601f19603f3d011682016040523d82523d6000602084013e6129cd565b606091505b506000815103612a1457836040517f64a0ae92000000000000000000000000000000000000000000000000000000008152600401612a0b91906133f9565b60405180910390fd5b805181602001fd5b63150b7a0260e01b7bffffffffffffffffffffffffffffffffffffffffffffffffffffffff1916817bffffffffffffffffffffffffffffffffffffffffffffffffffffffff191614612aa557836040517f64a0ae92000000000000000000000000000000000000000000000000000000008152600401612a9c91906133f9565b60405180910390fd5b505b5050505050565b606060405180602001604052806000815250905090565b606060006001612ad484612e7d565b01905060008167ffffffffffffffff811115612af357612af2613634565b5b6040519080825280601f01601f191660200182016040528015612b255781602001600182028036833780820191505090505b509050600082602001820190505b600115612b88578080600190039150507f3031323334353637383961626364656600000000000000000000000000000000600a86061a8153600a8581612b7c57612b7b614661565b5b04945060008503612b33575b819350505050919050565b60006003600083815260200190815260200160002060009054906101000a900473ffffffffffffffffffffffffffffffffffffffff169050919050565b8080612c095750600073ffffffffffffffffffffffffffffffffffffffff168273ffffffffffffffffffffffffffffffffffffffff1614155b15612d3d576000612c19846121bf565b9050600073ffffffffffffffffffffffffffffffffffffffff168373ffffffffffffffffffffffffffffffffffffffff1614158015612c8457508273ffffffffffffffffffffffffffffffffffffffff168173ffffffffffffffffffffffffffffffffffffffff1614155b8015612c975750612c958184611ce1565b155b15612cd957826040517fa9fbf51f000000000000000000000000000000000000000000000000000000008152600401612cd091906133f9565b60405180910390fd5b8115612d3b57838573ffffffffffffffffffffffffffffffffffffffff168273ffffffffffffffffffffffffffffffffffffffff167f8c5be1e5ebec7d5bd14f71427d1e84f3dd0314c0f7b2291e5b200ac8c7c3b92560405160405180910390a45b505b836005600085815260200190815260200160002060006101000a81548173ffffffffffffffffffffffffffffffffffffffff021916908373ffffffffffffffffffffffffffffffffffffffff16021790555050505050565b612da0838383612fd0565b612e5457600073ffffffffffffffffffffffffffffffffffffffff168373ffffffffffffffffffffffffffffffffffffffff1603612e1557806040517f7e273289000000000000000000000000000000000000000000000000000000008152600401612e0c919061348f565b60405180910390fd5b81816040517f177e802f000000000000000000000000000000000000000000000000000000008152600401612e4b929190614690565b60405180910390fd5b505050565b612e638383613091565b612e78612e6e612284565b60008585856128fd565b505050565b600080600090507a184f03e93ff9f4daa797ed6e38ed64bf6a1f0100000000000000008310612edb577a184f03e93ff9f4daa797ed6e38ed64bf6a1f0100000000000000008381612ed157612ed0614661565b5b0492506040810190505b6d04ee2d6d415b85acef81000000008310612f18576d04ee2d6d415b85acef81000000008381612f0e57612f0d614661565b5b0492506020810190505b662386f26fc100008310612f4757662386f26fc100008381612f3d57612f3c614661565b5b0492506010810190505b6305f5e1008310612f70576305f5e1008381612f6657612f65614661565b5b0492506008810190505b6127108310612f95576127108381612f8b57612f8a614661565b5b0492506004810190505b60648310612fb85760648381612fae57612fad614661565b5b0492506002810190505b600a8310612fc7576001810190505b80915050919050565b60008073ffffffffffffffffffffffffffffffffffffffff168373ffffffffffffffffffffffffffffffffffffffff161415801561308857508273ffffffffffffffffffffffffffffffffffffffff168473ffffffffffffffffffffffffffffffffffffffff16148061304957506130488484611ce1565b5b8061308757508273ffffffffffffffffffffffffffffffffffffffff1661306f83612247565b73ffffffffffffffffffffffffffffffffffffffff16145b5b90509392505050565b600073ffffffffffffffffffffffffffffffffffffffff168273ffffffffffffffffffffffffffffffffffffffff16036131035760006040517f64a0ae920000000000000000000000000000000000000000000000000000000081526004016130fa91906133f9565b60405180910390fd5b60006131118383600061229e565b9050600073ffffffffffffffffffffffffffffffffffffffff168173ffffffffffffffffffffffffffffffffffffffff16146131855760006040517f73c6ac6e00000000000000000000000000000000000000000000000000000000815260040161317c91906133f9565b60405180910390fd5b505050565b6040518060c0016040528060608152602001600060048111156131b0576131af61353d565b5b81526020016060815260200160608152602001600081526020016000151581525090565b6000604051905090565b600080fd5b600080fd5b60007fffffffff0000000000000000000000000000000000000000000000000000000082169050919050565b61321d816131e8565b811461322857600080fd5b50565b60008135905061323a81613214565b92915050565b600060208284031215613256576132556131de565b5b60006132648482850161322b565b91505092915050565b60008115159050919050565b6132828161326d565b82525050565b600060208201905061329d6000830184613279565b92915050565b600081519050919050565b600082825260208201905092915050565b60005b838110156132dd5780820151818401526020810190506132c2565b60008484015250505050565b6000601f19601f8301169050919050565b6000613305826132a3565b61330f81856132ae565b935061331f8185602086016132bf565b613328816132e9565b840191505092915050565b6000602082019050818103600083015261334d81846132fa565b905092915050565b6000819050919050565b61336881613355565b811461337357600080fd5b50565b6000813590506133858161335f565b92915050565b6000602082840312156133a1576133a06131de565b5b60006133af84828501613376565b91505092915050565b600073ffffffffffffffffffffffffffffffffffffffff82169050919050565b60006133e3826133b8565b9050919050565b6133f3816133d8565b82525050565b600060208201905061340e60008301846133ea565b92915050565b61341d816133d8565b811461342857600080fd5b50565b60008135905061343a81613414565b92915050565b60008060408385031215613457576134566131de565b5b60006134658582860161342b565b925050602061347685828601613376565b9150509250929050565b61348981613355565b82525050565b60006020820190506134a46000830184613480565b92915050565b6000806000606084860312156134c3576134c26131de565b5b60006134d18682870161342b565b93505060206134e28682870161342b565b92505060406134f386828701613376565b9150509250925092565b60008060408385031215613514576135136131de565b5b600061352285828601613376565b925050602061353385828601613376565b9150509250929050565b7f4e487b7100000000000000000000000000000000000000000000000000000000600052602160045260246000fd5b6005811061357d5761357c61353d565b5b50565b600081905061358e8261356c565b919050565b600061359e82613580565b9050919050565b6135ae81613593565b82525050565b600060c08201905081810360008301526135ce81896132fa565b90506135dd60208301886135a5565b81810360408301526135ef81876132fa565b9050818103606083015261360381866132fa565b90506136126080830185613480565b61361f60a0830184613279565b979650505050505050565b600080fd5b600080fd5b7f4e487b7100000000000000000000000000000000000000000000000000000000600052604160045260246000fd5b61366c826132e9565b810181811067ffffffffffffffff8211171561368b5761368a613634565b5b80604052505050565b600061369e6131d4565b90506136aa8282613663565b919050565b600067ffffffffffffffff8211156136ca576136c9613634565b5b6136d3826132e9565b9050602081019050919050565b82818337600083830152505050565b60006137026136fd846136af565b613694565b90508281526020810184848401111561371e5761371d61362f565b5b6137298482856136e0565b509392505050565b600082601f8301126137465761374561362a565b5b81356137568482602086016136ef565b91505092915050565b6005811061376c57600080fd5b50565b60008135905061377e8161375f565b92915050565b600080600080600060a086880312156137a05761379f6131de565b5b600086013567ffffffffffffffff8111156137be576137bd6131e3565b5b6137ca88828901613731565b95505060206137db8882890161376f565b945050604086013567ffffffffffffffff8111156137fc576137fb6131e3565b5b61380888828901613731565b935050606086013567ffffffffffffffff811115613829576138286131e3565b5b61383588828901613731565b925050608061384688828901613376565b9150509295509295909350565b600060208284031215613869576138686131de565b5b60006138778482850161342b565b91505092915050565b600081519050919050565b600082825260208201905092915050565b6000819050602082019050919050565b600082825260208201905092915050565b60006138c8826132a3565b6138d281856138ac565b93506138e28185602086016132bf565b6138eb816132e9565b840191505092915050565b6138ff81613593565b82525050565b61390e81613355565b82525050565b61391d8161326d565b82525050565b600060c083016000830151848203600086015261394082826138bd565b915050602083015161395560208601826138f6565b506040830151848203604086015261396d82826138bd565b9150506060830151848203606086015261398782826138bd565b915050608083015161399c6080860182613905565b5060a08301516139af60a0860182613914565b508091505092915050565b60006139c68383613923565b905092915050565b6000602082019050919050565b60006139e682613880565b6139f0818561388b565b935083602082028501613a028561389c565b8060005b85811015613a3e5784840389528151613a1f85826139ba565b9450613a2a836139ce565b925060208a01995050600181019050613a06565b50829750879550505050505092915050565b60006020820190508181036000830152613a6a81846139db565b905092915050565b613a7b8161326d565b8114613a8657600080fd5b50565b600081359050613a9881613a72565b92915050565b60008060408385031215613ab557613ab46131de565b5b6000613ac38582860161342b565b9250506020613ad485828601613a89565b9150509250929050565b600067ffffffffffffffff821115613af957613af8613634565b5b613b02826132e9565b9050602081019050919050565b6000613b22613b1d84613ade565b613694565b905082815260208101848484011115613b3e57613b3d61362f565b5b613b498482856136e0565b509392505050565b600082601f830112613b6657613b6561362a565b5b8135613b76848260208601613b0f565b91505092915050565b60008060008060808587031215613b9957613b986131de565b5b6000613ba78782880161342b565b9450506020613bb88782880161342b565b9350506040613bc987828801613376565b925050606085013567ffffffffffffffff811115613bea57613be96131e3565b5b613bf687828801613b51565b91505092959194509250565b60008060408385031215613c1957613c186131de565b5b6000613c278582860161342b565b9250506020613c388582860161342b565b9150509250929050565b600060c0830160008301518482036000860152613c5f82826138bd565b9150506020830151613c7460208601826138f6565b5060408301518482036040860152613c8c82826138bd565b91505060608301518482036060860152613ca682826138bd565b9150506080830151613cbb6080860182613905565b5060a0830151613cce60a0860182613914565b508091505092915050565b60006020820190508181036000830152613cf38184613c42565b905092915050565b600081519050919050565b600082825260208201905092915050565b6000819050602082019050919050565b613d30816133d8565b82525050565b6000613d428383613d27565b60208301905092915050565b6000602082019050919050565b6000613d6682613cfb565b613d708185613d06565b9350613d7b83613d17565b8060005b83811015613dac578151613d938882613d36565b9750613d9e83613d4e565b925050600181019050613d7f565b5085935050505092915050565b60006020820190508181036000830152613dd38184613d5b565b905092915050565b7f4e487b7100000000000000000000000000000000000000000000000000000000600052602260045260246000fd5b60006002820490506001821680613e2257607f821691505b602082108103613e3557613e34613ddb565b5b50919050565b7f566f7573206e276574657320706173206c652070726f7072696574616972652060008201527f6465206365747465206f65757672650000000000000000000000000000000000602082015250565b6000613e97602f836132ae565b9150613ea282613e3b565b604082019050919050565b60006020820190508181036000830152613ec681613e8a565b9050919050565b7f566f7573206176657a2061747465696e74206c61206c696d6974652064276f6560008201527f757672657320706f737365646565730000000000000000000000000000000000602082015250565b6000613f29602f836132ae565b9150613f3482613ecd565b604082019050919050565b60006020820190508181036000830152613f5881613f1c565b9050919050565b7f4c276f6575767265206e276573742070617320656e2076656e74650000000000600082015250565b6000613f95601b836132ae565b9150613fa082613f5f565b602082019050919050565b60006020820190508181036000830152613fc481613f88565b9050919050565b6000606082019050613fe060008301866133ea565b613fed6020830185613480565b613ffa60408301846133ea565b949350505050565b7f4c65207072697820646f69742065747265207375706572696575722061203000600082015250565b6000614038601f836132ae565b915061404382614002565b602082019050919050565b600060208201905081810360008301526140678161402b565b9050919050565b60008190508160005260206000209050919050565b60006020601f8301049050919050565b600082821b905092915050565b6000600883026140d07fffffffffffffffffffffffffffffffffffffffffffffffffffffffffffffffff82614093565b6140da8683614093565b95508019841693508086168417925050509392505050565b6000819050919050565b600061411761411261410d84613355565b6140f2565b613355565b9050919050565b6000819050919050565b614131836140fc565b61414561413d8261411e565b8484546140a0565b825550505050565b600090565b61415a61414d565b614165818484614128565b505050565b5b818110156141895761417e600082614152565b60018101905061416b565b5050565b601f8211156141ce5761419f8161406e565b6141a884614083565b810160208510156141b7578190505b6141cb6141c385614083565b83018261416a565b50505b505050565b600082821c905092915050565b60006141f1600019846008026141d3565b1980831691505092915050565b600061420a83836141e0565b9150826002028217905092915050565b614223826132a3565b67ffffffffffffffff81111561423c5761423b613634565b5b6142468254613e0a565b61425182828561418d565b600060209050601f8311600181146142845760008415614272578287015190505b61427c85826141fe565b8655506142e4565b601f1984166142928661406e565b60005b828110156142ba57848901518255600182019150602085019450602081019050614295565b868310156142d757848901516142d3601f8916826141e0565b8355505b6001600288020188555050505b505050505050565b7f4e487b7100000000000000000000000000000000000000000000000000000000600052601160045260246000fd5b600061432682613355565b91507fffffffffffffffffffffffffffffffffffffffffffffffffffffffffffffffff8203614358576143576142ec565b5b600182019050919050565b600061436e82613355565b915061437983613355565b9250828201905080821115614391576143906142ec565b5b92915050565b7f566575696c6c657a20617474656e647265206176616e7420646520666169726560008201527f20756e65206e6f7576656c6c65207472616e73616374696f6e00000000000000602082015250565b60006143f36039836132ae565b91506143fe82614397565b604082019050919050565b60006020820190508181036000830152614422816143e6565b9050919050565b7f4c65206d6f6e74616e7420656e766f7965206e6520636f72726573706f6e642060008201527f7061732061752070726978206465206c276f6575767265000000000000000000602082015250565b60006144856037836132ae565b915061449082614429565b604082019050919050565b600060208201905081810360008301526144b481614478565b9050919050565b60006144c682613355565b91506144d183613355565b92508282039050818111156144e9576144e86142ec565b5b92915050565b7f4e487b7100000000000000000000000000000000000000000000000000000000600052603260045260246000fd5b600081905092915050565b6000614534826132a3565b61453e818561451e565b935061454e8185602086016132bf565b80840191505092915050565b60006145668285614529565b91506145728284614529565b91508190509392505050565b600081519050919050565b600082825260208201905092915050565b60006145a58261457e565b6145af8185614589565b93506145bf8185602086016132bf565b6145c8816132e9565b840191505092915050565b60006080820190506145e860008301876133ea565b6145f560208301866133ea565b6146026040830185613480565b8181036060830152614614818461459a565b905095945050505050565b60008151905061462e81613214565b92915050565b60006020828403121561464a576146496131de565b5b60006146588482850161461f565b91505092915050565b7f4e487b7100000000000000000000000000000000000000000000000000000000600052601260045260246000fd5b60006040820190506146a560008301856133ea565b6146b26020830184613480565b939250505056fea264697066735822122046fa57e0fe803c46444aded67c628cd0a00b299a14638dfa023d4c89c72ed2d064736f6c634300081c0033",
  "linkReferences": {},
  "deployedLinkReferences": {}
}