{
  "_format": "hh-sol-artifact-1",
  "contractName": "ArtCollection",
  "sourceName": "contracts/ArtCollection.sol",
  "abi": [
    {
      "inputs": [],
      "stateMutability": "nonpayable",
      "type": "constructor"
    },
    {
      "inputs": [
        {
          "internalType": "address",
          "name": "sender",
          "type": "address"
        },
        {
          "internalType": "uint256",
          "name": "tokenId",
          "type": "uint256"
        },
        {
          "internalType": "address",
          "name": "owner",
          "type": "address"
        }
      ],
      "name": "ERC721IncorrectOwner",
      "type": "error"
    },
    {
      "inputs": [
        {
          "internalType": "address",
          "name": "operator",
          "type": "address"
        },
        {
          "internalType": "uint256",
          "name": "tokenId",
          "type": "uint256"
        }
      ],
      "name": "ERC721InsufficientApproval",
      "type": "error"
    },
    {
      "inputs": [
        {
          "internalType": "address",
          "name": "approver",
          "type": "address"
        }
      ],
      "name": "ERC721InvalidApprover",
      "type": "error"
    },
    {
      "inputs": [
        {
          "internalType": "address",
          "name": "operator",
          "type": "address"
        }
      ],
      "name": "ERC721InvalidOperator",
      "type": "error"
    },
    {
      "inputs": [
        {
          "internalType": "address",
          "name": "owner",
          "type": "address"
        }
      ],
      "name": "ERC721InvalidOwner",
      "type": "error"
    },
    {
      "inputs": [
        {
          "internalType": "address",
          "name": "receiver",
          "type": "address"
        }
      ],
      "name": "ERC721InvalidReceiver",
      "type": "error"
    },
    {
      "inputs": [
        {
          "internalType": "address",
          "name": "sender",
          "type": "address"
        }
      ],
      "name": "ERC721InvalidSender",
      "type": "error"
    },
    {
      "inputs": [
        {
          "internalType": "uint256",
          "name": "tokenId",
          "type": "uint256"
        }
      ],
      "name": "ERC721NonexistentToken",
      "type": "error"
    },
    {
      "inputs": [
        {
          "internalType": "address",
          "name": "owner",
          "type": "address"
        }
      ],
      "name": "OwnableInvalidOwner",
      "type": "error"
    },
    {
      "inputs": [
        {
          "internalType": "address",
          "name": "account",
          "type": "address"
        }
      ],
      "name": "OwnableUnauthorizedAccount",
      "type": "error"
    },
    {
      "anonymous": false,
      "inputs": [
        {
          "indexed": true,
          "internalType": "address",
          "name": "owner",
          "type": "address"
        },
        {
          "indexed": true,
          "internalType": "address",
          "name": "approved",
          "type": "address"
        },
        {
          "indexed": true,
          "internalType": "uint256",
          "name": "tokenId",
          "type": "uint256"
        }
      ],
      "name": "Approval",
      "type": "event"
    },
    {
      "anonymous": false,
      "inputs": [
        {
          "indexed": true,
          "internalType": "address",
          "name": "owner",
          "type": "address"
        },
        {
          "indexed": true,
          "internalType": "address",
          "name": "operator",
          "type": "address"
        },
        {
          "indexed": false,
          "internalType": "bool",
          "name": "approved",
          "type": "bool"
        }
      ],
      "name": "ApprovalForAll",
      "type": "event"
    },
    {
      "anonymous": false,
      "inputs": [
        {
          "indexed": true,
          "internalType": "address",
          "name": "previousOwner",
          "type": "address"
        },
        {
          "indexed": true,
          "internalType": "address",
          "name": "newOwner",
          "type": "address"
        }
      ],
      "name": "OwnershipTransferred",
      "type": "event"
    },
    {
      "anonymous": false,
      "inputs": [
        {
          "indexed": true,
          "internalType": "address",
          "name": "from",
          "type": "address"
        },
        {
          "indexed": true,
          "internalType": "address",
          "name": "to",
          "type": "address"
        },
        {
          "indexed": true,
          "internalType": "uint256",
          "name": "tokenId",
          "type": "uint256"
        }
      ],
      "name": "Transfer",
      "type": "event"
    },
    {
      "inputs": [],
      "name": "MAX_ARTWORKS_PER_USER",
      "outputs": [
        {
          "internalType": "uint256",
          "name": "",
          "type": "uint256"
        }
      ],
      "stateMutability": "view",
      "type": "function"
    },
    {
      "inputs": [
        {
          "internalType": "address",
          "name": "to",
          "type": "address"
        },
        {
          "internalType": "uint256",
          "name": "tokenId",
          "type": "uint256"
        }
      ],
      "name": "approve",
      "outputs": [],
      "stateMutability": "nonpayable",
      "type": "function"
    },
    {
      "inputs": [
        {
          "internalType": "uint256",
          "name": "",
          "type": "uint256"
        }
      ],
      "name": "artworks",
      "outputs": [
        {
          "internalType": "string",
          "name": "metadataURI",
          "type": "string"
        },
        {
          "internalType": "uint256",
          "name": "price",
          "type": "uint256"
        },
        {
          "internalType": "bool",
          "name": "forSale",
          "type": "bool"
        }
      ],
      "stateMutability": "view",
      "type": "function"
    },
    {
      "inputs": [
        {
          "internalType": "address",
          "name": "owner",
          "type": "address"
        }
      ],
      "name": "balanceOf",
      "outputs": [
        {
          "internalType": "uint256",
          "name": "",
          "type": "uint256"
        }
      ],
      "stateMutability": "view",
      "type": "function"
    },
    {
      "inputs": [
        {
          "internalType": "uint256",
          "name": "_tokenId",
          "type": "uint256"
        }
      ],
      "name": "buyArtWork",
      "outputs": [],
      "stateMutability": "payable",
      "type": "function"
    },
    {
      "inputs": [],
      "name": "getAllArtworks",
      "outputs": [
        {
          "components": [
            {
              "internalType": "string",
              "name": "metadataURI",
              "type": "string"
            },
            {
              "internalType": "uint256",
              "name": "price",
              "type": "uint256"
            },
            {
              "internalType": "bool",
              "name": "forSale",
              "type": "bool"
            }
          ],
          "internalType": "struct ArtCollection.ArtWork[]",
          "name": "",
          "type": "tuple[]"
        },
        {
          "internalType": "address[]",
          "name": "",
          "type": "address[]"
        }
      ],
      "stateMutability": "view",
      "type": "function"
    },
    {
      "inputs": [
        {
          "internalType": "uint256",
          "name": "tokenId",
          "type": "uint256"
        }
      ],
      "name": "getApproved",
      "outputs": [
        {
          "internalType": "address",
          "name": "",
          "type": "address"
        }
      ],
      "stateMutability": "view",
      "type": "function"
    },
    {
      "inputs": [
        {
          "internalType": "uint256",
          "name": "_tokenId",
          "type": "uint256"
        }
      ],
      "name": "getArtWork",
      "outputs": [
        {
          "internalType": "string",
          "name": "",
          "type": "string"
        }
      ],
      "stateMutability": "view",
      "type": "function"
    },
    {
      "inputs": [
        {
          "internalType": "uint256",
          "name": "_tokenId",
          "type": "uint256"
        }
      ],
      "name": "getPreviousOwners",
      "outputs": [
        {
          "internalType": "address[]",
          "name": "",
          "type": "address[]"
        }
      ],
      "stateMutability": "view",
      "type": "function"
    },
    {
      "inputs": [],
      "name": "getUserArtCount",
      "outputs": [
        {
          "internalType": "uint256",
          "name": "",
          "type": "uint256"
        }
      ],
      "stateMutability": "view",
      "type": "function"
    },
    {
      "inputs": [
        {
          "internalType": "address",
          "name": "owner",
          "type": "address"
        },
        {
          "internalType": "address",
          "name": "operator",
          "type": "address"
        }
      ],
      "name": "isApprovedForAll",
      "outputs": [
        {
          "internalType": "bool",
          "name": "",
          "type": "bool"
        }
      ],
      "stateMutability": "view",
      "type": "function"
    },
    {
      "inputs": [
        {
          "internalType": "address",
          "name": "",
          "type": "address"
        }
      ],
      "name": "lastTransactionTime",
      "outputs": [
        {
          "internalType": "uint256",
          "name": "",
          "type": "uint256"
        }
      ],
      "stateMutability": "view",
      "type": "function"
    },
    {
      "inputs": [
        {
          "internalType": "string",
          "name": "_metadataURI",
          "type": "string"
        },
        {
          "internalType": "uint256",
          "name": "_price",
          "type": "uint256"
        }
      ],
      "name": "mintArtWork",
      "outputs": [],
      "stateMutability": "nonpayable",
      "type": "function"
    },
    {
      "inputs": [],
      "name": "name",
      "outputs": [
        {
          "internalType": "string",
          "name": "",
          "type": "string"
        }
      ],
      "stateMutability": "view",
      "type": "function"
    },
    {
      "inputs": [],
      "name": "owner",
      "outputs": [
        {
          "internalType": "address",
          "name": "",
          "type": "address"
        }
      ],
      "stateMutability": "view",
      "type": "function"
    },
    {
      "inputs": [
        {
          "internalType": "uint256",
          "name": "tokenId",
          "type": "uint256"
        }
      ],
      "name": "ownerOf",
      "outputs": [
        {
          "internalType": "address",
          "name": "",
          "type": "address"
        }
      ],
      "stateMutability": "view",
      "type": "function"
    },
    {
      "inputs": [
        {
          "internalType": "uint256",
          "name": "",
          "type": "uint256"
        },
        {
          "internalType": "uint256",
          "name": "",
          "type": "uint256"
        }
      ],
      "name": "previousOwners",
      "outputs": [
        {
          "internalType": "address",
          "name": "",
          "type": "address"
        }
      ],
      "stateMutability": "view",
      "type": "function"
    },
    {
      "inputs": [
        {
          "internalType": "uint256",
          "name": "_tokenId",
          "type": "uint256"
        },
        {
          "internalType": "uint256",
          "name": "_price",
          "type": "uint256"
        }
      ],
      "name": "putArtWorkForSale",
      "outputs": [],
      "stateMutability": "nonpayable",
      "type": "function"
    },
    {
      "inputs": [
        {
          "internalType": "uint256",
          "name": "_tokenId",
          "type": "uint256"
        }
      ],
      "name": "removeFromSale",
      "outputs": [],
      "stateMutability": "nonpayable",
      "type": "function"
    },
    {
      "inputs": [],
      "name": "renounceOwnership",
      "outputs": [],
      "stateMutability": "nonpayable",
      "type": "function"
    },
    {
      "inputs": [
        {
          "internalType": "address",
          "name": "from",
          "type": "address"
        },
        {
          "internalType": "address",
          "name": "to",
          "type": "address"
        },
        {
          "internalType": "uint256",
          "name": "tokenId",
          "type": "uint256"
        }
      ],
      "name": "safeTransferFrom",
      "outputs": [],
      "stateMutability": "nonpayable",
      "type": "function"
    },
    {
      "inputs": [
        {
          "internalType": "address",
          "name": "from",
          "type": "address"
        },
        {
          "internalType": "address",
          "name": "to",
          "type": "address"
        },
        {
          "internalType": "uint256",
          "name": "tokenId",
          "type": "uint256"
        },
        {
          "internalType": "bytes",
          "name": "data",
          "type": "bytes"
        }
      ],
      "name": "safeTransferFrom",
      "outputs": [],
      "stateMutability": "nonpayable",
      "type": "function"
    },
    {
      "inputs": [
        {
          "internalType": "address",
          "name": "operator",
          "type": "address"
        },
        {
          "internalType": "bool",
          "name": "approved",
          "type": "bool"
        }
      ],
      "name": "setApprovalForAll",
      "outputs": [],
      "stateMutability": "nonpayable",
      "type": "function"
    },
    {
      "inputs": [
        {
          "internalType": "bytes4",
          "name": "interfaceId",
          "type": "bytes4"
        }
      ],
      "name": "supportsInterface",
      "outputs": [
        {
          "internalType": "bool",
          "name": "",
          "type": "bool"
        }
      ],
      "stateMutability": "view",
      "type": "function"
    },
    {
      "inputs": [],
      "name": "symbol",
      "outputs": [
        {
          "internalType": "string",
          "name": "",
          "type": "string"
        }
      ],
      "stateMutability": "view",
      "type": "function"
    },
    {
      "inputs": [],
      "name": "tokenId",
      "outputs": [
        {
          "internalType": "uint256",
          "name": "",
          "type": "uint256"
        }
      ],
      "stateMutability": "view",
      "type": "function"
    },
    {
      "inputs": [
        {
          "internalType": "uint256",
          "name": "tokenId",
          "type": "uint256"
        }
      ],
      "name": "tokenURI",
      "outputs": [
        {
          "internalType": "string",
          "name": "",
          "type": "string"
        }
      ],
      "stateMutability": "view",
      "type": "function"
    },
    {
      "inputs": [
        {
          "internalType": "address",
          "name": "from",
          "type": "address"
        },
        {
          "internalType": "address",
          "name": "to",
          "type": "address"
        },
        {
          "internalType": "uint256",
          "name": "tokenId",
          "type": "uint256"
        }
      ],
      "name": "transferFrom",
      "outputs": [],
      "stateMutability": "nonpayable",
      "type": "function"
    },
    {
      "inputs": [
        {
          "internalType": "address",
          "name": "newOwner",
          "type": "address"
        }
      ],
      "name": "transferOwnership",
      "outputs": [],
      "stateMutability": "nonpayable",
      "type": "function"
    },
    {
      "inputs": [
        {
          "internalType": "address",
          "name": "",
          "type": "address"
        }
      ],
      "name": "userArtCount",
      "outputs": [
        {
          "internalType": "uint256",
          "name": "",
          "type": "uint256"
        }
      ],
      "stateMutability": "view",
      "type": "function"
    }
  ],
  "bytecode": "0x6080604052600060075534801561001557600080fd5b506040518060400160405280600d81526020017f417274436f6c6c656374696f6e000000000000000000000000000000000000008152506040518060400160405280600381526020017f415254000000000000000000000000000000000000000000000000000000000081525033600073ffffffffffffffffffffffffffffffffffffffff168173ffffffffffffffffffffffffffffffffffffffff16036100f55760006040517f1e4fbdf70000000000000000000000000000000000000000000000000000000081526004016100ec9190610231565b60405180910390fd5b6101048161012c60201b60201c565b508160019081610114919061049c565b508060029081610124919061049c565b50505061056e565b60008060009054906101000a900473ffffffffffffffffffffffffffffffffffffffff169050816000806101000a81548173ffffffffffffffffffffffffffffffffffffffff021916908373ffffffffffffffffffffffffffffffffffffffff1602179055508173ffffffffffffffffffffffffffffffffffffffff168173ffffffffffffffffffffffffffffffffffffffff167f8be0079c531659141344cd1fd0a4f28419497f9722a3daafe3b4186f6b6457e060405160405180910390a35050565b600073ffffffffffffffffffffffffffffffffffffffff82169050919050565b600061021b826101f0565b9050919050565b61022b81610210565b82525050565b60006020820190506102466000830184610222565b92915050565b600081519050919050565b7f4e487b7100000000000000000000000000000000000000000000000000000000600052604160045260246000fd5b7f4e487b7100000000000000000000000000000000000000000000000000000000600052602260045260246000fd5b600060028204905060018216806102cd57607f821691505b6020821081036102e0576102df610286565b5b50919050565b60008190508160005260206000209050919050565b60006020601f8301049050919050565b600082821b905092915050565b6000600883026103487fffffffffffffffffffffffffffffffffffffffffffffffffffffffffffffffff8261030b565b610352868361030b565b95508019841693508086168417925050509392505050565b6000819050919050565b6000819050919050565b600061039961039461038f8461036a565b610374565b61036a565b9050919050565b6000819050919050565b6103b38361037e565b6103c76103bf826103a0565b848454610318565b825550505050565b600090565b6103dc6103cf565b6103e78184846103aa565b505050565b5b8181101561040b576104006000826103d4565b6001810190506103ed565b5050565b601f82111561045057610421816102e6565b61042a846102fb565b81016020851015610439578190505b61044d610445856102fb565b8301826103ec565b50505b505050565b600082821c905092915050565b600061047360001984600802610455565b1980831691505092915050565b600061048c8383610462565b9150826002028217905092915050565b6104a58261024c565b67ffffffffffffffff8111156104be576104bd610257565b5b6104c882546102b5565b6104d382828561040f565b600060209050601f83116001811461050657600084156104f4578287015190505b6104fe8582610480565b865550610566565b601f198416610514866102e6565b60005b8281101561053c57848901518255600182019150602085019450602081019050610517565b868310156105595784890151610555601f891682610462565b8355505b6001600288020188555050505b505050505050565b613f258061057d6000396000f3fe6080604052600436106101cd5760003560e01c806395d89b41116100f7578063c87b56dd11610095578063edd3383111610064578063edd33831146106b6578063f1a0995c146106f3578063f1c9d7f114610730578063f2fde38b14610759576101cd565b8063c87b56dd146105d4578063e7451a4014610611578063e75b20731461063c578063e985e9c514610679576101cd565b8063b20f7390116100d1578063b20f739014610506578063b54fb04a14610543578063b88d4fde14610580578063c190c589146105a9576101cd565b806395d89b41146104865780639c0cc30c146104b1578063a22cb465146104dd576101cd565b806337cb407a1161016f57806370a082311161013e57806370a08231146103eb578063715018a6146104285780638ca9482b1461043f5780638da5cb5b1461045b576101cd565b806337cb407a1461031d57806342842e0e146103465780634b6026731461036f5780636352211e146103ae576101cd565b8063095ea7b3116101ab578063095ea7b3146102775780631361a3b6146102a057806317d70f7c146102c957806323b872dd146102f4576101cd565b806301ffc9a7146101d257806306fdde031461020f578063081812fc1461023a575b600080fd5b3480156101de57600080fd5b506101f960048036038101906101f49190612cb7565b610782565b6040516102069190612cff565b60405180910390f35b34801561021b57600080fd5b50610224610864565b6040516102319190612daa565b60405180910390f35b34801561024657600080fd5b50610261600480360381019061025c9190612e02565b6108f6565b60405161026e9190612e70565b60405180910390f35b34801561028357600080fd5b5061029e60048036038101906102999190612eb7565b610912565b005b3480156102ac57600080fd5b506102c760048036038101906102c29190612e02565b610928565b005b3480156102d557600080fd5b506102de610ab7565b6040516102eb9190612f06565b60405180910390f35b34801561030057600080fd5b5061031b60048036038101906103169190612f21565b610abd565b005b34801561032957600080fd5b50610344600480360381019061033f9190612f74565b610bbf565b005b34801561035257600080fd5b5061036d60048036038101906103689190612f21565b610cc8565b005b34801561037b57600080fd5b5061039660048036038101906103919190612e02565b610ce8565b6040516103a593929190612fb4565b60405180910390f35b3480156103ba57600080fd5b506103d560048036038101906103d09190612e02565b610da7565b6040516103e29190612e70565b60405180910390f35b3480156103f757600080fd5b50610412600480360381019061040d9190612ff2565b610db9565b60405161041f9190612f06565b60405180910390f35b34801561043457600080fd5b5061043d610e73565b005b61045960048036038101906104549190612e02565b610e87565b005b34801561046757600080fd5b506104706113a8565b60405161047d9190612e70565b60405180910390f35b34801561049257600080fd5b5061049b6113d1565b6040516104a89190612daa565b60405180910390f35b3480156104bd57600080fd5b506104c6611463565b6040516104d4929190613257565b60405180910390f35b3480156104e957600080fd5b5061050460048036038101906104ff91906132ba565b61167f565b005b34801561051257600080fd5b5061052d60048036038101906105289190612ff2565b611695565b60405161053a9190612f06565b60405180910390f35b34801561054f57600080fd5b5061056a60048036038101906105659190612f74565b6116ad565b6040516105779190612e70565b60405180910390f35b34801561058c57600080fd5b506105a760048036038101906105a2919061342f565b6116fb565b005b3480156105b557600080fd5b506105be611720565b6040516105cb9190612f06565b60405180910390f35b3480156105e057600080fd5b506105fb60048036038101906105f69190612e02565b611725565b6040516106089190612daa565b60405180910390f35b34801561061d57600080fd5b5061062661178e565b6040516106339190612f06565b60405180910390f35b34801561064857600080fd5b50610663600480360381019061065e9190612ff2565b6117d5565b6040516106709190612f06565b60405180910390f35b34801561068557600080fd5b506106a0600480360381019061069b91906134b2565b6117ed565b6040516106ad9190612cff565b60405180910390f35b3480156106c257600080fd5b506106dd60048036038101906106d89190612e02565b611881565b6040516106ea9190612daa565b60405180910390f35b3480156106ff57600080fd5b5061071a60048036038101906107159190612e02565b61199f565b60405161072791906134f2565b60405180910390f35b34801561073c57600080fd5b50610757600480360381019061075291906135b5565b611a40565b005b34801561076557600080fd5b50610780600480360381019061077b9190612ff2565b611b6d565b005b60007f80ac58cd000000000000000000000000000000000000000000000000000000007bffffffffffffffffffffffffffffffffffffffffffffffffffffffff1916827bffffffffffffffffffffffffffffffffffffffffffffffffffffffff1916148061084d57507f5b5e139f000000000000000000000000000000000000000000000000000000007bffffffffffffffffffffffffffffffffffffffffffffffffffffffff1916827bffffffffffffffffffffffffffffffffffffffffffffffffffffffff1916145b8061085d575061085c82611bf3565b5b9050919050565b60606001805461087390613640565b80601f016020809104026020016040519081016040528092919081815260200182805461089f90613640565b80156108ec5780601f106108c1576101008083540402835291602001916108ec565b820191906000526020600020905b8154815290600101906020018083116108cf57829003601f168201915b5050505050905090565b600061090182611c5d565b5061090b82611ce5565b9050919050565b610924828261091f611d22565b611d2a565b5050565b803373ffffffffffffffffffffffffffffffffffffffff1661094982610da7565b73ffffffffffffffffffffffffffffffffffffffff161461099f576040517f08c379a0000000000000000000000000000000000000000000000000000000008152600401610996906136e3565b60405180910390fd5b600a600960003373ffffffffffffffffffffffffffffffffffffffff1673ffffffffffffffffffffffffffffffffffffffff1681526020019081526020016000205410610a21576040517f08c379a0000000000000000000000000000000000000000000000000000000008152600401610a1890613775565b60405180910390fd5b6008600083815260200190815260200160002060020160009054906101000a900460ff16610a84576040517f08c379a0000000000000000000000000000000000000000000000000000000008152600401610a7b906137e1565b60405180910390fd5b60006008600084815260200190815260200160002060020160006101000a81548160ff0219169083151502179055505050565b60075481565b600073ffffffffffffffffffffffffffffffffffffffff168273ffffffffffffffffffffffffffffffffffffffff1603610b2f5760006040517f64a0ae92000000000000000000000000000000000000000000000000000000008152600401610b269190612e70565b60405180910390fd5b6000610b438383610b3e611d22565b611d3c565b90508373ffffffffffffffffffffffffffffffffffffffff168173ffffffffffffffffffffffffffffffffffffffff1614610bb9578382826040517f64283d7b000000000000000000000000000000000000000000000000000000008152600401610bb093929190613801565b60405180910390fd5b50505050565b813373ffffffffffffffffffffffffffffffffffffffff16610be082610da7565b73ffffffffffffffffffffffffffffffffffffffff1614610c36576040517f08c379a0000000000000000000000000000000000000000000000000000000008152600401610c2d906136e3565b60405180910390fd5b60008211610c79576040517f08c379a0000000000000000000000000000000000000000000000000000000008152600401610c7090613884565b60405180910390fd5b60016008600085815260200190815260200160002060020160006101000a81548160ff021916908315150217905550816008600085815260200190815260200160002060010181905550505050565b610ce3838383604051806020016040528060008152506116fb565b505050565b6008602052806000526040600020600091509050806000018054610d0b90613640565b80601f0160208091040260200160405190810160405280929190818152602001828054610d3790613640565b8015610d845780601f10610d5957610100808354040283529160200191610d84565b820191906000526020600020905b815481529060010190602001808311610d6757829003601f168201915b5050505050908060010154908060020160009054906101000a900460ff16905083565b6000610db282611c5d565b9050919050565b60008073ffffffffffffffffffffffffffffffffffffffff168273ffffffffffffffffffffffffffffffffffffffff1603610e2c5760006040517f89c62b64000000000000000000000000000000000000000000000000000000008152600401610e239190612e70565b60405180910390fd5b600460008373ffffffffffffffffffffffffffffffffffffffff1673ffffffffffffffffffffffffffffffffffffffff168152602001908152602001600020549050919050565b610e7b611f56565b610e856000611fdd565b565b61012c600b60003373ffffffffffffffffffffffffffffffffffffffff1673ffffffffffffffffffffffffffffffffffffffff16815260200190815260200160002054610ed491906138d3565b421015610f16576040517f08c379a0000000000000000000000000000000000000000000000000000000008152600401610f0d90613979565b60405180910390fd5b600a600960003373ffffffffffffffffffffffffffffffffffffffff1673ffffffffffffffffffffffffffffffffffffffff1681526020019081526020016000205410610f98576040517f08c379a0000000000000000000000000000000000000000000000000000000008152600401610f8f90613775565b60405180910390fd5b600060086000838152602001908152602001600020604051806060016040529081600082018054610fc890613640565b80601f0160208091040260200160405190810160405280929190818152602001828054610ff490613640565b80156110415780601f1061101657610100808354040283529160200191611041565b820191906000526020600020905b81548152906001019060200180831161102457829003601f168201915b50505050508152602001600182015481526020016002820160009054906101000a900460ff161515151581525050905080604001516110b5576040517f08c379a00000000000000000000000000000000000000000000000000000000081526004016110ac906137e1565b60405180910390fd5b806020015134146110fb576040517f08c379a00000000000000000000000000000000000000000000000000000000081526004016110f290613a0b565b60405180910390fd5b600061110683610da7565b90508073ffffffffffffffffffffffffffffffffffffffff166108fc349081150290604051600060405180830381858888f1935050505015801561114e573d6000803e3d6000fd5b5061115a8133856120a1565b600a6000848152602001908152602001600020819080600181540180825580915050600190039060005260206000200160009091909190916101000a81548173ffffffffffffffffffffffffffffffffffffffff021916908373ffffffffffffffffffffffffffffffffffffffff16021790555060006008600085815260200190815260200160002060020160006101000a81548160ff0219169083151502179055506001600960008373ffffffffffffffffffffffffffffffffffffffff1673ffffffffffffffffffffffffffffffffffffffff168152602001908152602001600020546112499190613a2b565b600960008373ffffffffffffffffffffffffffffffffffffffff1673ffffffffffffffffffffffffffffffffffffffff168152602001908152602001600020819055506001600960003373ffffffffffffffffffffffffffffffffffffffff1673ffffffffffffffffffffffffffffffffffffffff168152602001908152602001600020546112d891906138d3565b600960003373ffffffffffffffffffffffffffffffffffffffff1673ffffffffffffffffffffffffffffffffffffffff1681526020019081526020016000208190555042600b60003373ffffffffffffffffffffffffffffffffffffffff1673ffffffffffffffffffffffffffffffffffffffff1681526020019081526020016000208190555042600b60008373ffffffffffffffffffffffffffffffffffffffff1673ffffffffffffffffffffffffffffffffffffffff16815260200190815260200160002081905550505050565b60008060009054906101000a900473ffffffffffffffffffffffffffffffffffffffff16905090565b6060600280546113e090613640565b80601f016020809104026020016040519081016040528092919081815260200182805461140c90613640565b80156114595780601f1061142e57610100808354040283529160200191611459565b820191906000526020600020905b81548152906001019060200180831161143c57829003601f168201915b5050505050905090565b606080600060075467ffffffffffffffff81111561148457611483613304565b5b6040519080825280602002602001820160405280156114bd57816020015b6114aa612c28565b8152602001906001900390816114a25790505b509050600060075467ffffffffffffffff8111156114de576114dd613304565b5b60405190808252806020026020018201604052801561150c5781602001602082028036833780820191505090505b50905060005b600754811015611672576008600082815260200190815260200160002060405180606001604052908160008201805461154a90613640565b80601f016020809104026020016040519081016040528092919081815260200182805461157690613640565b80156115c35780601f10611598576101008083540402835291602001916115c3565b820191906000526020600020905b8154815290600101906020018083116115a657829003601f168201915b50505050508152602001600182015481526020016002820160009054906101000a900460ff16151515158152505083828151811061160457611603613a5f565b5b602002602001018190525061161881610da7565b82828151811061162b5761162a613a5f565b5b602002602001019073ffffffffffffffffffffffffffffffffffffffff16908173ffffffffffffffffffffffffffffffffffffffff16815250508080600101915050611512565b5081819350935050509091565b61169161168a611d22565b838361220e565b5050565b60096020528060005260406000206000915090505481565b600a60205281600052604060002081815481106116c957600080fd5b906000526020600020016000915091509054906101000a900473ffffffffffffffffffffffffffffffffffffffff1681565b611706848484610abd565b61171a611711611d22565b8585858561237d565b50505050565b600a81565b606061173082611c5d565b50600061173b61252e565b9050600081511161175b5760405180602001604052806000815250611786565b8061176584612545565b604051602001611776929190613aca565b6040516020818303038152906040525b915050919050565b6000600960003373ffffffffffffffffffffffffffffffffffffffff1673ffffffffffffffffffffffffffffffffffffffff16815260200190815260200160002054905090565b600b6020528060005260406000206000915090505481565b6000600660008473ffffffffffffffffffffffffffffffffffffffff1673ffffffffffffffffffffffffffffffffffffffff16815260200190815260200160002060008373ffffffffffffffffffffffffffffffffffffffff1673ffffffffffffffffffffffffffffffffffffffff16815260200190815260200160002060009054906101000a900460ff16905092915050565b60603373ffffffffffffffffffffffffffffffffffffffff166118a383610da7565b73ffffffffffffffffffffffffffffffffffffffff16146118f9576040517f08c379a00000000000000000000000000000000000000000000000000000000081526004016118f0906136e3565b60405180910390fd5b60086000838152602001908152602001600020600001805461191a90613640565b80601f016020809104026020016040519081016040528092919081815260200182805461194690613640565b80156119935780601f1061196857610100808354040283529160200191611993565b820191906000526020600020905b81548152906001019060200180831161197657829003601f168201915b50505050509050919050565b6060600a6000838152602001908152602001600020805480602002602001604051908101604052809291908181526020018280548015611a3457602002820191906000526020600020905b8160009054906101000a900473ffffffffffffffffffffffffffffffffffffffff1673ffffffffffffffffffffffffffffffffffffffff16815260200190600101908083116119ea575b50505050509050919050565b6040518060600160405280838152602001828152602001600115158152506008600060075481526020019081526020016000206000820151816000019081611a889190613c9a565b506020820151816001015560408201518160020160006101000a81548160ff021916908315150217905550905050611ac233600754612613565b60076000815480929190611ad590613d6c565b91905055506001600960003373ffffffffffffffffffffffffffffffffffffffff1673ffffffffffffffffffffffffffffffffffffffff16815260200190815260200160002054611b2691906138d3565b600960003373ffffffffffffffffffffffffffffffffffffffff1673ffffffffffffffffffffffffffffffffffffffff168152602001908152602001600020819055505050565b611b75611f56565b600073ffffffffffffffffffffffffffffffffffffffff168173ffffffffffffffffffffffffffffffffffffffff1603611be75760006040517f1e4fbdf7000000000000000000000000000000000000000000000000000000008152600401611bde9190612e70565b60405180910390fd5b611bf081611fdd565b50565b60007f01ffc9a7000000000000000000000000000000000000000000000000000000007bffffffffffffffffffffffffffffffffffffffffffffffffffffffff1916827bffffffffffffffffffffffffffffffffffffffffffffffffffffffff1916149050919050565b600080611c6983612631565b9050600073ffffffffffffffffffffffffffffffffffffffff168173ffffffffffffffffffffffffffffffffffffffff1603611cdc57826040517f7e273289000000000000000000000000000000000000000000000000000000008152600401611cd39190612f06565b60405180910390fd5b80915050919050565b60006005600083815260200190815260200160002060009054906101000a900473ffffffffffffffffffffffffffffffffffffffff169050919050565b600033905090565b611d37838383600161266e565b505050565b600080611d4884612631565b9050600073ffffffffffffffffffffffffffffffffffffffff168373ffffffffffffffffffffffffffffffffffffffff1614611d8a57611d89818486612833565b5b600073ffffffffffffffffffffffffffffffffffffffff168173ffffffffffffffffffffffffffffffffffffffff1614611e1b57611dcc60008560008061266e565b6001600460008373ffffffffffffffffffffffffffffffffffffffff1673ffffffffffffffffffffffffffffffffffffffff168152602001908152602001600020600082825403925050819055505b600073ffffffffffffffffffffffffffffffffffffffff168573ffffffffffffffffffffffffffffffffffffffff1614611e9e576001600460008773ffffffffffffffffffffffffffffffffffffffff1673ffffffffffffffffffffffffffffffffffffffff168152602001908152602001600020600082825401925050819055505b846003600086815260200190815260200160002060006101000a81548173ffffffffffffffffffffffffffffffffffffffff021916908373ffffffffffffffffffffffffffffffffffffffff160217905550838573ffffffffffffffffffffffffffffffffffffffff168273ffffffffffffffffffffffffffffffffffffffff167fddf252ad1be2c89b69c2b068fc378daa952ba7f163c4a11628f55a4df523b3ef60405160405180910390a4809150509392505050565b611f5e611d22565b73ffffffffffffffffffffffffffffffffffffffff16611f7c6113a8565b73ffffffffffffffffffffffffffffffffffffffff1614611fdb57611f9f611d22565b6040517f118cdaa7000000000000000000000000000000000000000000000000000000008152600401611fd29190612e70565b60405180910390fd5b565b60008060009054906101000a900473ffffffffffffffffffffffffffffffffffffffff169050816000806101000a81548173ffffffffffffffffffffffffffffffffffffffff021916908373ffffffffffffffffffffffffffffffffffffffff1602179055508173ffffffffffffffffffffffffffffffffffffffff168173ffffffffffffffffffffffffffffffffffffffff167f8be0079c531659141344cd1fd0a4f28419497f9722a3daafe3b4186f6b6457e060405160405180910390a35050565b600073ffffffffffffffffffffffffffffffffffffffff168273ffffffffffffffffffffffffffffffffffffffff16036121135760006040517f64a0ae9200000000000000000000000000000000000000000000000000000000815260040161210a9190612e70565b60405180910390fd5b600061212183836000611d3c565b9050600073ffffffffffffffffffffffffffffffffffffffff168173ffffffffffffffffffffffffffffffffffffffff160361219457816040517f7e27328900000000000000000000000000000000000000000000000000000000815260040161218b9190612f06565b60405180910390fd5b8373ffffffffffffffffffffffffffffffffffffffff168173ffffffffffffffffffffffffffffffffffffffff1614612208578382826040517f64283d7b0000000000000000000000000000000000000000000000000000000081526004016121ff93929190613801565b60405180910390fd5b50505050565b600073ffffffffffffffffffffffffffffffffffffffff168273ffffffffffffffffffffffffffffffffffffffff160361227f57816040517f5b08ba180000000000000000000000000000000000000000000000000000000081526004016122769190612e70565b60405180910390fd5b80600660008573ffffffffffffffffffffffffffffffffffffffff1673ffffffffffffffffffffffffffffffffffffffff16815260200190815260200160002060008473ffffffffffffffffffffffffffffffffffffffff1673ffffffffffffffffffffffffffffffffffffffff16815260200190815260200160002060006101000a81548160ff0219169083151502179055508173ffffffffffffffffffffffffffffffffffffffff168373ffffffffffffffffffffffffffffffffffffffff167f17307eab39ab6107e8899845ad3d59bd9653f200f220920489ca2b5937696c31836040516123709190612cff565b60405180910390a3505050565b60008373ffffffffffffffffffffffffffffffffffffffff163b1115612527578273ffffffffffffffffffffffffffffffffffffffff1663150b7a02868685856040518563ffffffff1660e01b81526004016123dc9493929190613e09565b6020604051808303816000875af192505050801561241857506040513d601f19601f820116820180604052508101906124159190613e6a565b60015b61249c573d8060008114612448576040519150601f19603f3d011682016040523d82523d6000602084013e61244d565b606091505b50600081510361249457836040517f64a0ae9200000000000000000000000000000000000000000000000000000000815260040161248b9190612e70565b60405180910390fd5b805181602001fd5b63150b7a0260e01b7bffffffffffffffffffffffffffffffffffffffffffffffffffffffff1916817bffffffffffffffffffffffffffffffffffffffffffffffffffffffff19161461252557836040517f64a0ae9200000000000000000000000000000000000000000000000000000000815260040161251c9190612e70565b60405180910390fd5b505b5050505050565b606060405180602001604052806000815250905090565b606060006001612554846128f7565b01905060008167ffffffffffffffff81111561257357612572613304565b5b6040519080825280601f01601f1916602001820160405280156125a55781602001600182028036833780820191505090505b509050600082602001820190505b600115612608578080600190039150507f3031323334353637383961626364656600000000000000000000000000000000600a86061a8153600a85816125fc576125fb613e97565b5b049450600085036125b3575b819350505050919050565b61262d828260405180602001604052806000815250612a4a565b5050565b60006003600083815260200190815260200160002060009054906101000a900473ffffffffffffffffffffffffffffffffffffffff169050919050565b80806126a75750600073ffffffffffffffffffffffffffffffffffffffff168273ffffffffffffffffffffffffffffffffffffffff1614155b156127db5760006126b784611c5d565b9050600073ffffffffffffffffffffffffffffffffffffffff168373ffffffffffffffffffffffffffffffffffffffff161415801561272257508273ffffffffffffffffffffffffffffffffffffffff168173ffffffffffffffffffffffffffffffffffffffff1614155b8015612735575061273381846117ed565b155b1561277757826040517fa9fbf51f00000000000000000000000000000000000000000000000000000000815260040161276e9190612e70565b60405180910390fd5b81156127d957838573ffffffffffffffffffffffffffffffffffffffff168273ffffffffffffffffffffffffffffffffffffffff167f8c5be1e5ebec7d5bd14f71427d1e84f3dd0314c0f7b2291e5b200ac8c7c3b92560405160405180910390a45b505b836005600085815260200190815260200160002060006101000a81548173ffffffffffffffffffffffffffffffffffffffff021916908373ffffffffffffffffffffffffffffffffffffffff16021790555050505050565b61283e838383612a6e565b6128f257600073ffffffffffffffffffffffffffffffffffffffff168373ffffffffffffffffffffffffffffffffffffffff16036128b357806040517f7e2732890000000000000000000000000000000000000000000000000000000081526004016128aa9190612f06565b60405180910390fd5b81816040517f177e802f0000000000000000000000000000000000000000000000000000000081526004016128e9929190613ec6565b60405180910390fd5b505050565b600080600090507a184f03e93ff9f4daa797ed6e38ed64bf6a1f0100000000000000008310612955577a184f03e93ff9f4daa797ed6e38ed64bf6a1f010000000000000000838161294b5761294a613e97565b5b0492506040810190505b6d04ee2d6d415b85acef81000000008310612992576d04ee2d6d415b85acef8100000000838161298857612987613e97565b5b0492506020810190505b662386f26fc1000083106129c157662386f26fc1000083816129b7576129b6613e97565b5b0492506010810190505b6305f5e10083106129ea576305f5e10083816129e0576129df613e97565b5b0492506008810190505b6127108310612a0f576127108381612a0557612a04613e97565b5b0492506004810190505b60648310612a325760648381612a2857612a27613e97565b5b0492506002810190505b600a8310612a41576001810190505b80915050919050565b612a548383612b2f565b612a69612a5f611d22565b600085858561237d565b505050565b60008073ffffffffffffffffffffffffffffffffffffffff168373ffffffffffffffffffffffffffffffffffffffff1614158015612b2657508273ffffffffffffffffffffffffffffffffffffffff168473ffffffffffffffffffffffffffffffffffffffff161480612ae75750612ae684846117ed565b5b80612b2557508273ffffffffffffffffffffffffffffffffffffffff16612b0d83611ce5565b73ffffffffffffffffffffffffffffffffffffffff16145b5b90509392505050565b600073ffffffffffffffffffffffffffffffffffffffff168273ffffffffffffffffffffffffffffffffffffffff1603612ba15760006040517f64a0ae92000000000000000000000000000000000000000000000000000000008152600401612b989190612e70565b60405180910390fd5b6000612baf83836000611d3c565b9050600073ffffffffffffffffffffffffffffffffffffffff168173ffffffffffffffffffffffffffffffffffffffff1614612c235760006040517f73c6ac6e000000000000000000000000000000000000000000000000000000008152600401612c1a9190612e70565b60405180910390fd5b505050565b604051806060016040528060608152602001600081526020016000151581525090565b6000604051905090565b600080fd5b600080fd5b60007fffffffff0000000000000000000000000000000000000000000000000000000082169050919050565b612c9481612c5f565b8114612c9f57600080fd5b50565b600081359050612cb181612c8b565b92915050565b600060208284031215612ccd57612ccc612c55565b5b6000612cdb84828501612ca2565b91505092915050565b60008115159050919050565b612cf981612ce4565b82525050565b6000602082019050612d146000830184612cf0565b92915050565b600081519050919050565b600082825260208201905092915050565b60005b83811015612d54578082015181840152602081019050612d39565b60008484015250505050565b6000601f19601f8301169050919050565b6000612d7c82612d1a565b612d868185612d25565b9350612d96818560208601612d36565b612d9f81612d60565b840191505092915050565b60006020820190508181036000830152612dc48184612d71565b905092915050565b6000819050919050565b612ddf81612dcc565b8114612dea57600080fd5b50565b600081359050612dfc81612dd6565b92915050565b600060208284031215612e1857612e17612c55565b5b6000612e2684828501612ded565b91505092915050565b600073ffffffffffffffffffffffffffffffffffffffff82169050919050565b6000612e5a82612e2f565b9050919050565b612e6a81612e4f565b82525050565b6000602082019050612e856000830184612e61565b92915050565b612e9481612e4f565b8114612e9f57600080fd5b50565b600081359050612eb181612e8b565b92915050565b60008060408385031215612ece57612ecd612c55565b5b6000612edc85828601612ea2565b9250506020612eed85828601612ded565b9150509250929050565b612f0081612dcc565b82525050565b6000602082019050612f1b6000830184612ef7565b92915050565b600080600060608486031215612f3a57612f39612c55565b5b6000612f4886828701612ea2565b9350506020612f5986828701612ea2565b9250506040612f6a86828701612ded565b9150509250925092565b60008060408385031215612f8b57612f8a612c55565b5b6000612f9985828601612ded565b9250506020612faa85828601612ded565b9150509250929050565b60006060820190508181036000830152612fce8186612d71565b9050612fdd6020830185612ef7565b612fea6040830184612cf0565b949350505050565b60006020828403121561300857613007612c55565b5b600061301684828501612ea2565b91505092915050565b600081519050919050565b600082825260208201905092915050565b6000819050602082019050919050565b600082825260208201905092915050565b600061306782612d1a565b613071818561304b565b9350613081818560208601612d36565b61308a81612d60565b840191505092915050565b61309e81612dcc565b82525050565b6130ad81612ce4565b82525050565b600060608301600083015184820360008601526130d0828261305c565b91505060208301516130e56020860182613095565b5060408301516130f860408601826130a4565b508091505092915050565b600061310f83836130b3565b905092915050565b6000602082019050919050565b600061312f8261301f565b613139818561302a565b93508360208202850161314b8561303b565b8060005b8581101561318757848403895281516131688582613103565b945061317383613117565b925060208a0199505060018101905061314f565b50829750879550505050505092915050565b600081519050919050565b600082825260208201905092915050565b6000819050602082019050919050565b6131ce81612e4f565b82525050565b60006131e083836131c5565b60208301905092915050565b6000602082019050919050565b600061320482613199565b61320e81856131a4565b9350613219836131b5565b8060005b8381101561324a57815161323188826131d4565b975061323c836131ec565b92505060018101905061321d565b5085935050505092915050565b600060408201905081810360008301526132718185613124565b9050818103602083015261328581846131f9565b90509392505050565b61329781612ce4565b81146132a257600080fd5b50565b6000813590506132b48161328e565b92915050565b600080604083850312156132d1576132d0612c55565b5b60006132df85828601612ea2565b92505060206132f0858286016132a5565b9150509250929050565b600080fd5b600080fd5b7f4e487b7100000000000000000000000000000000000000000000000000000000600052604160045260246000fd5b61333c82612d60565b810181811067ffffffffffffffff8211171561335b5761335a613304565b5b80604052505050565b600061336e612c4b565b905061337a8282613333565b919050565b600067ffffffffffffffff82111561339a57613399613304565b5b6133a382612d60565b9050602081019050919050565b82818337600083830152505050565b60006133d26133cd8461337f565b613364565b9050828152602081018484840111156133ee576133ed6132ff565b5b6133f98482856133b0565b509392505050565b600082601f830112613416576134156132fa565b5b81356134268482602086016133bf565b91505092915050565b6000806000806080858703121561344957613448612c55565b5b600061345787828801612ea2565b945050602061346887828801612ea2565b935050604061347987828801612ded565b925050606085013567ffffffffffffffff81111561349a57613499612c5a565b5b6134a687828801613401565b91505092959194509250565b600080604083850312156134c9576134c8612c55565b5b60006134d785828601612ea2565b92505060206134e885828601612ea2565b9150509250929050565b6000602082019050818103600083015261350c81846131f9565b905092915050565b600067ffffffffffffffff82111561352f5761352e613304565b5b61353882612d60565b9050602081019050919050565b600061355861355384613514565b613364565b905082815260208101848484011115613574576135736132ff565b5b61357f8482856133b0565b509392505050565b600082601f83011261359c5761359b6132fa565b5b81356135ac848260208601613545565b91505092915050565b600080604083850312156135cc576135cb612c55565b5b600083013567ffffffffffffffff8111156135ea576135e9612c5a565b5b6135f685828601613587565b925050602061360785828601612ded565b9150509250929050565b7f4e487b7100000000000000000000000000000000000000000000000000000000600052602260045260246000fd5b6000600282049050600182168061365857607f821691505b60208210810361366b5761366a613611565b5b50919050565b7f566f7573206e276574657320706173206c652070726f7072696574616972652060008201527f6465206365747465206f65757672650000000000000000000000000000000000602082015250565b60006136cd602f83612d25565b91506136d882613671565b604082019050919050565b600060208201905081810360008301526136fc816136c0565b9050919050565b7f566f7573206176657a2061747465696e74206c61206c696d6974652064276f6560008201527f757672657320706f737365646565730000000000000000000000000000000000602082015250565b600061375f602f83612d25565b915061376a82613703565b604082019050919050565b6000602082019050818103600083015261378e81613752565b9050919050565b7f4c276f6575767265206e276573742070617320656e2076656e74650000000000600082015250565b60006137cb601b83612d25565b91506137d682613795565b602082019050919050565b600060208201905081810360008301526137fa816137be565b9050919050565b60006060820190506138166000830186612e61565b6138236020830185612ef7565b6138306040830184612e61565b949350505050565b7f4c65207072697820646f69742065747265207375706572696575722061203000600082015250565b600061386e601f83612d25565b915061387982613838565b602082019050919050565b6000602082019050818103600083015261389d81613861565b9050919050565b7f4e487b7100000000000000000000000000000000000000000000000000000000600052601160045260246000fd5b60006138de82612dcc565b91506138e983612dcc565b9250828201905080821115613901576139006138a4565b5b92915050565b7f566575696c6c657a20617474656e647265206176616e7420646520666169726560008201527f20756e65206e6f7576656c6c65207472616e73616374696f6e00000000000000602082015250565b6000613963603983612d25565b915061396e82613907565b604082019050919050565b6000602082019050818103600083015261399281613956565b9050919050565b7f4c65206d6f6e74616e7420656e766f7965206e6520636f72726573706f6e642060008201527f7061732061752070726978206465206c276f6575767265000000000000000000602082015250565b60006139f5603783612d25565b9150613a0082613999565b604082019050919050565b60006020820190508181036000830152613a24816139e8565b9050919050565b6000613a3682612dcc565b9150613a4183612dcc565b9250828203905081811115613a5957613a586138a4565b5b92915050565b7f4e487b7100000000000000000000000000000000000000000000000000000000600052603260045260246000fd5b600081905092915050565b6000613aa482612d1a565b613aae8185613a8e565b9350613abe818560208601612d36565b80840191505092915050565b6000613ad68285613a99565b9150613ae28284613a99565b91508190509392505050565b60008190508160005260206000209050919050565b60006020601f8301049050919050565b600082821b905092915050565b600060088302613b507fffffffffffffffffffffffffffffffffffffffffffffffffffffffffffffffff82613b13565b613b5a8683613b13565b95508019841693508086168417925050509392505050565b6000819050919050565b6000613b97613b92613b8d84612dcc565b613b72565b612dcc565b9050919050565b6000819050919050565b613bb183613b7c565b613bc5613bbd82613b9e565b848454613b20565b825550505050565b600090565b613bda613bcd565b613be5818484613ba8565b505050565b5b81811015613c0957613bfe600082613bd2565b600181019050613beb565b5050565b601f821115613c4e57613c1f81613aee565b613c2884613b03565b81016020851015613c37578190505b613c4b613c4385613b03565b830182613bea565b50505b505050565b600082821c905092915050565b6000613c7160001984600802613c53565b1980831691505092915050565b6000613c8a8383613c60565b9150826002028217905092915050565b613ca382612d1a565b67ffffffffffffffff811115613cbc57613cbb613304565b5b613cc68254613640565b613cd1828285613c0d565b600060209050601f831160018114613d045760008415613cf2578287015190505b613cfc8582613c7e565b865550613d64565b601f198416613d1286613aee565b60005b82811015613d3a57848901518255600182019150602085019450602081019050613d15565b86831015613d575784890151613d53601f891682613c60565b8355505b6001600288020188555050505b505050505050565b6000613d7782612dcc565b91507fffffffffffffffffffffffffffffffffffffffffffffffffffffffffffffffff8203613da957613da86138a4565b5b600182019050919050565b600081519050919050565b600082825260208201905092915050565b6000613ddb82613db4565b613de58185613dbf565b9350613df5818560208601612d36565b613dfe81612d60565b840191505092915050565b6000608082019050613e1e6000830187612e61565b613e2b6020830186612e61565b613e386040830185612ef7565b8181036060830152613e4a8184613dd0565b905095945050505050565b600081519050613e6481612c8b565b92915050565b600060208284031215613e8057613e7f612c55565b5b6000613e8e84828501613e55565b91505092915050565b7f4e487b7100000000000000000000000000000000000000000000000000000000600052601260045260246000fd5b6000604082019050613edb6000830185612e61565b613ee86020830184612ef7565b939250505056fea26469706673582212208e76a3bd46740ddd229e4481f8fc9803d74858ab940a078f07fe950934b1d33b64736f6c634300081c0033",
  "linkReferences": {},
  "deployedLinkReferences": {}
}