{
  "_format": "hh-sol-artifact-1",
  "contractName": "ArtCollection",
  "sourceName": "contracts/ArtCollection.sol",
  "abi": [
    {
      "inputs": [],
      "stateMutability": "nonpayable",
      "type": "constructor"
    },
    {
      "inputs": [
        {
          "internalType": "address",
          "name": "sender",
          "type": "address"
        },
        {
          "internalType": "uint256",
          "name": "tokenId",
          "type": "uint256"
        },
        {
          "internalType": "address",
          "name": "owner",
          "type": "address"
        }
      ],
      "name": "ERC721IncorrectOwner",
      "type": "error"
    },
    {
      "inputs": [
        {
          "internalType": "address",
          "name": "operator",
          "type": "address"
        },
        {
          "internalType": "uint256",
          "name": "tokenId",
          "type": "uint256"
        }
      ],
      "name": "ERC721InsufficientApproval",
      "type": "error"
    },
    {
      "inputs": [
        {
          "internalType": "address",
          "name": "approver",
          "type": "address"
        }
      ],
      "name": "ERC721InvalidApprover",
      "type": "error"
    },
    {
      "inputs": [
        {
          "internalType": "address",
          "name": "operator",
          "type": "address"
        }
      ],
      "name": "ERC721InvalidOperator",
      "type": "error"
    },
    {
      "inputs": [
        {
          "internalType": "address",
          "name": "owner",
          "type": "address"
        }
      ],
      "name": "ERC721InvalidOwner",
      "type": "error"
    },
    {
      "inputs": [
        {
          "internalType": "address",
          "name": "receiver",
          "type": "address"
        }
      ],
      "name": "ERC721InvalidReceiver",
      "type": "error"
    },
    {
      "inputs": [
        {
          "internalType": "address",
          "name": "sender",
          "type": "address"
        }
      ],
      "name": "ERC721InvalidSender",
      "type": "error"
    },
    {
      "inputs": [
        {
          "internalType": "uint256",
          "name": "tokenId",
          "type": "uint256"
        }
      ],
      "name": "ERC721NonexistentToken",
      "type": "error"
    },
    {
      "inputs": [
        {
          "internalType": "address",
          "name": "owner",
          "type": "address"
        }
      ],
      "name": "OwnableInvalidOwner",
      "type": "error"
    },
    {
      "inputs": [
        {
          "internalType": "address",
          "name": "account",
          "type": "address"
        }
      ],
      "name": "OwnableUnauthorizedAccount",
      "type": "error"
    },
    {
      "anonymous": false,
      "inputs": [
        {
          "indexed": true,
          "internalType": "address",
          "name": "owner",
          "type": "address"
        },
        {
          "indexed": true,
          "internalType": "address",
          "name": "approved",
          "type": "address"
        },
        {
          "indexed": true,
          "internalType": "uint256",
          "name": "tokenId",
          "type": "uint256"
        }
      ],
      "name": "Approval",
      "type": "event"
    },
    {
      "anonymous": false,
      "inputs": [
        {
          "indexed": true,
          "internalType": "address",
          "name": "owner",
          "type": "address"
        },
        {
          "indexed": true,
          "internalType": "address",
          "name": "operator",
          "type": "address"
        },
        {
          "indexed": false,
          "internalType": "bool",
          "name": "approved",
          "type": "bool"
        }
      ],
      "name": "ApprovalForAll",
      "type": "event"
    },
    {
      "anonymous": false,
      "inputs": [
        {
          "indexed": true,
          "internalType": "address",
          "name": "previousOwner",
          "type": "address"
        },
        {
          "indexed": true,
          "internalType": "address",
          "name": "newOwner",
          "type": "address"
        }
      ],
      "name": "OwnershipTransferred",
      "type": "event"
    },
    {
      "anonymous": false,
      "inputs": [
        {
          "indexed": true,
          "internalType": "address",
          "name": "from",
          "type": "address"
        },
        {
          "indexed": true,
          "internalType": "address",
          "name": "to",
          "type": "address"
        },
        {
          "indexed": true,
          "internalType": "uint256",
          "name": "tokenId",
          "type": "uint256"
        }
      ],
      "name": "Transfer",
      "type": "event"
    },
    {
      "inputs": [],
      "name": "MAX_ARTWORKS_PER_USER",
      "outputs": [
        {
          "internalType": "uint256",
          "name": "",
          "type": "uint256"
        }
      ],
      "stateMutability": "view",
      "type": "function"
    },
    {
      "inputs": [
        {
          "internalType": "address",
          "name": "to",
          "type": "address"
        },
        {
          "internalType": "uint256",
          "name": "tokenId",
          "type": "uint256"
        }
      ],
      "name": "approve",
      "outputs": [],
      "stateMutability": "nonpayable",
      "type": "function"
    },
    {
      "inputs": [
        {
          "internalType": "uint256",
          "name": "",
          "type": "uint256"
        }
      ],
      "name": "artworks",
      "outputs": [
        {
          "internalType": "string",
          "name": "name",
          "type": "string"
        },
        {
          "internalType": "enum ArtCollection.ArtType",
          "name": "artType",
          "type": "uint8"
        },
        {
          "internalType": "string",
          "name": "artist",
          "type": "string"
        },
        {
          "internalType": "string",
          "name": "descriptionHash",
          "type": "string"
        },
        {
          "internalType": "uint256",
          "name": "price",
          "type": "uint256"
        },
        {
          "internalType": "bool",
          "name": "forSale",
          "type": "bool"
        }
      ],
      "stateMutability": "view",
      "type": "function"
    },
    {
      "inputs": [
        {
          "internalType": "address",
          "name": "owner",
          "type": "address"
        }
      ],
      "name": "balanceOf",
      "outputs": [
        {
          "internalType": "uint256",
          "name": "",
          "type": "uint256"
        }
      ],
      "stateMutability": "view",
      "type": "function"
    },
    {
      "inputs": [
        {
          "internalType": "uint256",
          "name": "_tokenId",
          "type": "uint256"
        }
      ],
      "name": "buyArtWork",
      "outputs": [],
      "stateMutability": "payable",
      "type": "function"
    },
    {
      "inputs": [],
      "name": "getAllArtworks",
      "outputs": [
        {
          "components": [
            {
              "internalType": "string",
              "name": "name",
              "type": "string"
            },
            {
              "internalType": "enum ArtCollection.ArtType",
              "name": "artType",
              "type": "uint8"
            },
            {
              "internalType": "string",
              "name": "artist",
              "type": "string"
            },
            {
              "internalType": "string",
              "name": "descriptionHash",
              "type": "string"
            },
            {
              "internalType": "uint256",
              "name": "price",
              "type": "uint256"
            },
            {
              "internalType": "bool",
              "name": "forSale",
              "type": "bool"
            }
          ],
          "internalType": "struct ArtCollection.ArtWork[]",
          "name": "",
          "type": "tuple[]"
        },
        {
          "internalType": "address[]",
          "name": "",
          "type": "address[]"
        }
      ],
      "stateMutability": "view",
      "type": "function"
    },
    {
      "inputs": [
        {
          "internalType": "uint256",
          "name": "tokenId",
          "type": "uint256"
        }
      ],
      "name": "getApproved",
      "outputs": [
        {
          "internalType": "address",
          "name": "",
          "type": "address"
        }
      ],
      "stateMutability": "view",
      "type": "function"
    },
    {
      "inputs": [
        {
          "internalType": "uint256",
          "name": "_tokenId",
          "type": "uint256"
        }
      ],
      "name": "getArtWork",
      "outputs": [
        {
          "components": [
            {
              "internalType": "string",
              "name": "name",
              "type": "string"
            },
            {
              "internalType": "enum ArtCollection.ArtType",
              "name": "artType",
              "type": "uint8"
            },
            {
              "internalType": "string",
              "name": "artist",
              "type": "string"
            },
            {
              "internalType": "string",
              "name": "descriptionHash",
              "type": "string"
            },
            {
              "internalType": "uint256",
              "name": "price",
              "type": "uint256"
            },
            {
              "internalType": "bool",
              "name": "forSale",
              "type": "bool"
            }
          ],
          "internalType": "struct ArtCollection.ArtWork",
          "name": "",
          "type": "tuple"
        }
      ],
      "stateMutability": "view",
      "type": "function"
    },
    {
      "inputs": [
        {
          "internalType": "uint256",
          "name": "_tokenId",
          "type": "uint256"
        }
      ],
      "name": "getPreviousOwners",
      "outputs": [
        {
          "internalType": "address[]",
          "name": "",
          "type": "address[]"
        }
      ],
      "stateMutability": "view",
      "type": "function"
    },
    {
      "inputs": [],
      "name": "getUserArtCount",
      "outputs": [
        {
          "internalType": "uint256",
          "name": "",
          "type": "uint256"
        }
      ],
      "stateMutability": "view",
      "type": "function"
    },
    {
      "inputs": [
        {
          "internalType": "address",
          "name": "owner",
          "type": "address"
        },
        {
          "internalType": "address",
          "name": "operator",
          "type": "address"
        }
      ],
      "name": "isApprovedForAll",
      "outputs": [
        {
          "internalType": "bool",
          "name": "",
          "type": "bool"
        }
      ],
      "stateMutability": "view",
      "type": "function"
    },
    {
      "inputs": [
        {
          "internalType": "address",
          "name": "",
          "type": "address"
        }
      ],
      "name": "lastTransactionTime",
      "outputs": [
        {
          "internalType": "uint256",
          "name": "",
          "type": "uint256"
        }
      ],
      "stateMutability": "view",
      "type": "function"
    },
    {
      "inputs": [
        {
          "internalType": "string",
          "name": "_name",
          "type": "string"
        },
        {
          "internalType": "enum ArtCollection.ArtType",
          "name": "_artType",
          "type": "uint8"
        },
        {
          "internalType": "string",
          "name": "_artist",
          "type": "string"
        },
        {
          "internalType": "string",
          "name": "_descriptionHash",
          "type": "string"
        },
        {
          "internalType": "uint256",
          "name": "_price",
          "type": "uint256"
        }
      ],
      "name": "mintArtWork",
      "outputs": [],
      "stateMutability": "nonpayable",
      "type": "function"
    },
    {
      "inputs": [],
      "name": "name",
      "outputs": [
        {
          "internalType": "string",
          "name": "",
          "type": "string"
        }
      ],
      "stateMutability": "view",
      "type": "function"
    },
    {
      "inputs": [],
      "name": "owner",
      "outputs": [
        {
          "internalType": "address",
          "name": "",
          "type": "address"
        }
      ],
      "stateMutability": "view",
      "type": "function"
    },
    {
      "inputs": [
        {
          "internalType": "uint256",
          "name": "tokenId",
          "type": "uint256"
        }
      ],
      "name": "ownerOf",
      "outputs": [
        {
          "internalType": "address",
          "name": "",
          "type": "address"
        }
      ],
      "stateMutability": "view",
      "type": "function"
    },
    {
      "inputs": [
        {
          "internalType": "uint256",
          "name": "",
          "type": "uint256"
        },
        {
          "internalType": "uint256",
          "name": "",
          "type": "uint256"
        }
      ],
      "name": "previousOwners",
      "outputs": [
        {
          "internalType": "address",
          "name": "",
          "type": "address"
        }
      ],
      "stateMutability": "view",
      "type": "function"
    },
    {
      "inputs": [
        {
          "internalType": "uint256",
          "name": "_tokenId",
          "type": "uint256"
        },
        {
          "internalType": "uint256",
          "name": "_price",
          "type": "uint256"
        }
      ],
      "name": "putArtWorkForSale",
      "outputs": [],
      "stateMutability": "nonpayable",
      "type": "function"
    },
    {
      "inputs": [
        {
          "internalType": "uint256",
          "name": "_tokenId",
          "type": "uint256"
        }
      ],
      "name": "removeFromSale",
      "outputs": [],
      "stateMutability": "nonpayable",
      "type": "function"
    },
    {
      "inputs": [],
      "name": "renounceOwnership",
      "outputs": [],
      "stateMutability": "nonpayable",
      "type": "function"
    },
    {
      "inputs": [
        {
          "internalType": "address",
          "name": "from",
          "type": "address"
        },
        {
          "internalType": "address",
          "name": "to",
          "type": "address"
        },
        {
          "internalType": "uint256",
          "name": "tokenId",
          "type": "uint256"
        }
      ],
      "name": "safeTransferFrom",
      "outputs": [],
      "stateMutability": "nonpayable",
      "type": "function"
    },
    {
      "inputs": [
        {
          "internalType": "address",
          "name": "from",
          "type": "address"
        },
        {
          "internalType": "address",
          "name": "to",
          "type": "address"
        },
        {
          "internalType": "uint256",
          "name": "tokenId",
          "type": "uint256"
        },
        {
          "internalType": "bytes",
          "name": "data",
          "type": "bytes"
        }
      ],
      "name": "safeTransferFrom",
      "outputs": [],
      "stateMutability": "nonpayable",
      "type": "function"
    },
    {
      "inputs": [
        {
          "internalType": "address",
          "name": "operator",
          "type": "address"
        },
        {
          "internalType": "bool",
          "name": "approved",
          "type": "bool"
        }
      ],
      "name": "setApprovalForAll",
      "outputs": [],
      "stateMutability": "nonpayable",
      "type": "function"
    },
    {
      "inputs": [
        {
          "internalType": "bytes4",
          "name": "interfaceId",
          "type": "bytes4"
        }
      ],
      "name": "supportsInterface",
      "outputs": [
        {
          "internalType": "bool",
          "name": "",
          "type": "bool"
        }
      ],
      "stateMutability": "view",
      "type": "function"
    },
    {
      "inputs": [],
      "name": "symbol",
      "outputs": [
        {
          "internalType": "string",
          "name": "",
          "type": "string"
        }
      ],
      "stateMutability": "view",
      "type": "function"
    },
    {
      "inputs": [],
      "name": "tokenId",
      "outputs": [
        {
          "internalType": "uint256",
          "name": "",
          "type": "uint256"
        }
      ],
      "stateMutability": "view",
      "type": "function"
    },
    {
      "inputs": [
        {
          "internalType": "uint256",
          "name": "tokenId",
          "type": "uint256"
        }
      ],
      "name": "tokenURI",
      "outputs": [
        {
          "internalType": "string",
          "name": "",
          "type": "string"
        }
      ],
      "stateMutability": "view",
      "type": "function"
    },
    {
      "inputs": [
        {
          "internalType": "address",
          "name": "from",
          "type": "address"
        },
        {
          "internalType": "address",
          "name": "to",
          "type": "address"
        },
        {
          "internalType": "uint256",
          "name": "tokenId",
          "type": "uint256"
        }
      ],
      "name": "transferFrom",
      "outputs": [],
      "stateMutability": "nonpayable",
      "type": "function"
    },
    {
      "inputs": [
        {
          "internalType": "address",
          "name": "newOwner",
          "type": "address"
        }
      ],
      "name": "transferOwnership",
      "outputs": [],
      "stateMutability": "nonpayable",
      "type": "function"
    },
    {
      "inputs": [
        {
          "internalType": "address",
          "name": "",
          "type": "address"
        }
      ],
      "name": "userArtCount",
      "outputs": [
        {
          "internalType": "uint256",
          "name": "",
          "type": "uint256"
        }
      ],
      "stateMutability": "view",
      "type": "function"
    }
  ],
  "bytecode": "0x6080604052600060075534801561001557600080fd5b506040518060400160405280600d81526020017f417274436f6c6c656374696f6e000000000000000000000000000000000000008152506040518060400160405280600381526020017f415254000000000000000000000000000000000000000000000000000000000081525033600073ffffffffffffffffffffffffffffffffffffffff168173ffffffffffffffffffffffffffffffffffffffff16036100f55760006040517f1e4fbdf70000000000000000000000000000000000000000000000000000000081526004016100ec9190610231565b60405180910390fd5b6101048161012c60201b60201c565b508160019081610114919061049c565b508060029081610124919061049c565b50505061056e565b60008060009054906101000a900473ffffffffffffffffffffffffffffffffffffffff169050816000806101000a81548173ffffffffffffffffffffffffffffffffffffffff021916908373ffffffffffffffffffffffffffffffffffffffff1602179055508173ffffffffffffffffffffffffffffffffffffffff168173ffffffffffffffffffffffffffffffffffffffff167f8be0079c531659141344cd1fd0a4f28419497f9722a3daafe3b4186f6b6457e060405160405180910390a35050565b600073ffffffffffffffffffffffffffffffffffffffff82169050919050565b600061021b826101f0565b9050919050565b61022b81610210565b82525050565b60006020820190506102466000830184610222565b92915050565b600081519050919050565b7f4e487b7100000000000000000000000000000000000000000000000000000000600052604160045260246000fd5b7f4e487b7100000000000000000000000000000000000000000000000000000000600052602260045260246000fd5b600060028204905060018216806102cd57607f821691505b6020821081036102e0576102df610286565b5b50919050565b60008190508160005260206000209050919050565b60006020601f8301049050919050565b600082821b905092915050565b6000600883026103487fffffffffffffffffffffffffffffffffffffffffffffffffffffffffffffffff8261030b565b610352868361030b565b95508019841693508086168417925050509392505050565b6000819050919050565b6000819050919050565b600061039961039461038f8461036a565b610374565b61036a565b9050919050565b6000819050919050565b6103b38361037e565b6103c76103bf826103a0565b848454610318565b825550505050565b600090565b6103dc6103cf565b6103e78184846103aa565b505050565b5b8181101561040b576104006000826103d4565b6001810190506103ed565b5050565b601f82111561045057610421816102e6565b61042a846102fb565b81016020851015610439578190505b61044d610445856102fb565b8301826103ec565b50505b505050565b600082821c905092915050565b600061047360001984600802610455565b1980831691505092915050565b600061048c8383610462565b9150826002028217905092915050565b6104a58261024c565b67ffffffffffffffff8111156104be576104bd610257565b5b6104c882546102b5565b6104d382828561040f565b600060209050601f83116001811461050657600084156104f4578287015190505b6104fe8582610480565b865550610566565b601f198416610514866102e6565b60005b8281101561053c57848901518255600182019150602085019450602081019050610517565b868310156105595784890151610555601f891682610462565b8355505b6001600288020188555050505b505050505050565b6147b08061057d6000396000f3fe6080604052600436106101cd5760003560e01c80638da5cb5b116100f7578063c190c58911610095578063e985e9c511610064578063e985e9c5146106a5578063edd33831146106e2578063f1a0995c1461071f578063f2fde38b1461075c576101cd565b8063c190c589146105d5578063c87b56dd14610600578063e7451a401461063d578063e75b207314610668576101cd565b8063a22cb465116100d1578063a22cb46514610509578063b20f739014610532578063b54fb04a1461056f578063b88d4fde146105ac576101cd565b80638da5cb5b1461048757806395d89b41146104b25780639c0cc30c146104dd576101cd565b806337cb407a1161016f5780636352211e1161013e5780636352211e146103da57806370a0823114610417578063715018a6146104545780638ca9482b1461046b576101cd565b806337cb407a1461031d57806342842e0e146103465780634b6026731461036f578063577488b1146103b1576101cd565b8063095ea7b3116101ab578063095ea7b3146102775780631361a3b6146102a057806317d70f7c146102c957806323b872dd146102f4576101cd565b806301ffc9a7146101d257806306fdde031461020f578063081812fc1461023a575b600080fd5b3480156101de57600080fd5b506101f960048036038101906101f491906132ec565b610785565b6040516102069190613334565b60405180910390f35b34801561021b57600080fd5b50610224610867565b60405161023191906133df565b60405180910390f35b34801561024657600080fd5b50610261600480360381019061025c9190613437565b6108f9565b60405161026e91906134a5565b60405180910390f35b34801561028357600080fd5b5061029e600480360381019061029991906134ec565b610915565b005b3480156102ac57600080fd5b506102c760048036038101906102c29190613437565b61092b565b005b3480156102d557600080fd5b506102de610aba565b6040516102eb919061353b565b60405180910390f35b34801561030057600080fd5b5061031b60048036038101906103169190613556565b610ac0565b005b34801561032957600080fd5b50610344600480360381019061033f91906135a9565b610bc2565b005b34801561035257600080fd5b5061036d60048036038101906103689190613556565b610ccb565b005b34801561037b57600080fd5b5061039660048036038101906103919190613437565b610ceb565b6040516103a896959493929190613660565b60405180910390f35b3480156103bd57600080fd5b506103d860048036038101906103d39190613830565b610ed9565b005b3480156103e657600080fd5b5061040160048036038101906103fc9190613437565b611089565b60405161040e91906134a5565b60405180910390f35b34801561042357600080fd5b5061043e600480360381019061043991906138ff565b61109b565b60405161044b919061353b565b60405180910390f35b34801561046057600080fd5b50610469611155565b005b61048560048036038101906104809190613437565b611169565b005b34801561049357600080fd5b5061049c6117e9565b6040516104a991906134a5565b60405180910390f35b3480156104be57600080fd5b506104c7611812565b6040516104d491906133df565b60405180910390f35b3480156104e957600080fd5b506104f26118a4565b604051610500929190613bba565b60405180910390f35b34801561051557600080fd5b50610530600480360381019061052b9190613c1d565b611c1f565b005b34801561053e57600080fd5b50610559600480360381019061055491906138ff565b611c35565b604051610566919061353b565b60405180910390f35b34801561057b57600080fd5b50610596600480360381019061059191906135a9565b611c4d565b6040516105a391906134a5565b60405180910390f35b3480156105b857600080fd5b506105d360048036038101906105ce9190613cfe565b611c9b565b005b3480156105e157600080fd5b506105ea611cc0565b6040516105f7919061353b565b60405180910390f35b34801561060c57600080fd5b5061062760048036038101906106229190613437565b611cc5565b60405161063491906133df565b60405180910390f35b34801561064957600080fd5b50610652611d2e565b60405161065f919061353b565b60405180910390f35b34801561067457600080fd5b5061068f600480360381019061068a91906138ff565b611d75565b60405161069c919061353b565b60405180910390f35b3480156106b157600080fd5b506106cc60048036038101906106c79190613d81565b611d8d565b6040516106d99190613334565b60405180910390f35b3480156106ee57600080fd5b5061070960048036038101906107049190613437565b611e21565b6040516107169190613e58565b60405180910390f35b34801561072b57600080fd5b5061074660048036038101906107419190613437565b6120da565b6040516107539190613e7a565b60405180910390f35b34801561076857600080fd5b50610783600480360381019061077e91906138ff565b61217b565b005b60007f80ac58cd000000000000000000000000000000000000000000000000000000007bffffffffffffffffffffffffffffffffffffffffffffffffffffffff1916827bffffffffffffffffffffffffffffffffffffffffffffffffffffffff1916148061085057507f5b5e139f000000000000000000000000000000000000000000000000000000007bffffffffffffffffffffffffffffffffffffffffffffffffffffffff1916827bffffffffffffffffffffffffffffffffffffffffffffffffffffffff1916145b80610860575061085f82612201565b5b9050919050565b60606001805461087690613ecb565b80601f01602080910402602001604051908101604052809291908181526020018280546108a290613ecb565b80156108ef5780601f106108c4576101008083540402835291602001916108ef565b820191906000526020600020905b8154815290600101906020018083116108d257829003601f168201915b5050505050905090565b60006109048261226b565b5061090e826122f3565b9050919050565b6109278282610922612330565b612338565b5050565b803373ffffffffffffffffffffffffffffffffffffffff1661094c82611089565b73ffffffffffffffffffffffffffffffffffffffff16146109a2576040517f08c379a000000000000000000000000000000000000000000000000000000000815260040161099990613f6e565b60405180910390fd5b600a600960003373ffffffffffffffffffffffffffffffffffffffff1673ffffffffffffffffffffffffffffffffffffffff1681526020019081526020016000205410610a24576040517f08c379a0000000000000000000000000000000000000000000000000000000008152600401610a1b90614000565b60405180910390fd5b6008600083815260200190815260200160002060050160009054906101000a900460ff16610a87576040517f08c379a0000000000000000000000000000000000000000000000000000000008152600401610a7e9061406c565b60405180910390fd5b60006008600084815260200190815260200160002060050160006101000a81548160ff0219169083151502179055505050565b60075481565b600073ffffffffffffffffffffffffffffffffffffffff168273ffffffffffffffffffffffffffffffffffffffff1603610b325760006040517f64a0ae92000000000000000000000000000000000000000000000000000000008152600401610b2991906134a5565b60405180910390fd5b6000610b468383610b41612330565b61234a565b90508373ffffffffffffffffffffffffffffffffffffffff168173ffffffffffffffffffffffffffffffffffffffff1614610bbc578382826040517f64283d7b000000000000000000000000000000000000000000000000000000008152600401610bb39392919061408c565b60405180910390fd5b50505050565b813373ffffffffffffffffffffffffffffffffffffffff16610be382611089565b73ffffffffffffffffffffffffffffffffffffffff1614610c39576040517f08c379a0000000000000000000000000000000000000000000000000000000008152600401610c3090613f6e565b60405180910390fd5b60008211610c7c576040517f08c379a0000000000000000000000000000000000000000000000000000000008152600401610c739061410f565b60405180910390fd5b60016008600085815260200190815260200160002060050160006101000a81548160ff021916908315150217905550816008600085815260200190815260200160002060040181905550505050565b610ce683838360405180602001604052806000815250611c9b565b505050565b6008602052806000526040600020600091509050806000018054610d0e90613ecb565b80601f0160208091040260200160405190810160405280929190818152602001828054610d3a90613ecb565b8015610d875780601f10610d5c57610100808354040283529160200191610d87565b820191906000526020600020905b815481529060010190602001808311610d6a57829003601f168201915b5050505050908060010160009054906101000a900460ff1690806002018054610daf90613ecb565b80601f0160208091040260200160405190810160405280929190818152602001828054610ddb90613ecb565b8015610e285780601f10610dfd57610100808354040283529160200191610e28565b820191906000526020600020905b815481529060010190602001808311610e0b57829003601f168201915b505050505090806003018054610e3d90613ecb565b80601f0160208091040260200160405190810160405280929190818152602001828054610e6990613ecb565b8015610eb65780601f10610e8b57610100808354040283529160200191610eb6565b820191906000526020600020905b815481529060010190602001808311610e9957829003601f168201915b5050505050908060040154908060050160009054906101000a900460ff16905086565b6040518060c00160405280868152602001856004811115610efd57610efc6135e9565b5b8152602001848152602001838152602001828152602001600015158152506008600060075481526020019081526020016000206000820151816000019081610f4591906142db565b5060208201518160010160006101000a81548160ff02191690836004811115610f7157610f706135e9565b5b02179055506040820151816002019081610f8b91906142db565b506060820151816003019081610fa191906142db565b506080820151816004015560a08201518160050160006101000a81548160ff021916908315150217905550905050610fdb33600754612564565b60076000815480929190610fee906143dc565b91905055506001600960003373ffffffffffffffffffffffffffffffffffffffff1673ffffffffffffffffffffffffffffffffffffffff1681526020019081526020016000205461103f9190614424565b600960003373ffffffffffffffffffffffffffffffffffffffff1673ffffffffffffffffffffffffffffffffffffffff168152602001908152602001600020819055505050505050565b60006110948261226b565b9050919050565b60008073ffffffffffffffffffffffffffffffffffffffff168273ffffffffffffffffffffffffffffffffffffffff160361110e5760006040517f89c62b6400000000000000000000000000000000000000000000000000000000815260040161110591906134a5565b60405180910390fd5b600460008373ffffffffffffffffffffffffffffffffffffffff1673ffffffffffffffffffffffffffffffffffffffff168152602001908152602001600020549050919050565b61115d612582565b6111676000612609565b565b61012c600b60003373ffffffffffffffffffffffffffffffffffffffff1673ffffffffffffffffffffffffffffffffffffffff168152602001908152602001600020546111b69190614424565b4210156111f8576040517f08c379a00000000000000000000000000000000000000000000000000000000081526004016111ef906144ca565b60405180910390fd5b600a600960003373ffffffffffffffffffffffffffffffffffffffff1673ffffffffffffffffffffffffffffffffffffffff168152602001908152602001600020541061127a576040517f08c379a000000000000000000000000000000000000000000000000000000000815260040161127190614000565b60405180910390fd5b6000600860008381526020019081526020016000206040518060c00160405290816000820180546112aa90613ecb565b80601f01602080910402602001604051908101604052809291908181526020018280546112d690613ecb565b80156113235780601f106112f857610100808354040283529160200191611323565b820191906000526020600020905b81548152906001019060200180831161130657829003601f168201915b505050505081526020016001820160009054906101000a900460ff166004811115611351576113506135e9565b5b6004811115611363576113626135e9565b5b815260200160028201805461137790613ecb565b80601f01602080910402602001604051908101604052809291908181526020018280546113a390613ecb565b80156113f05780601f106113c5576101008083540402835291602001916113f0565b820191906000526020600020905b8154815290600101906020018083116113d357829003601f168201915b5050505050815260200160038201805461140990613ecb565b80601f016020809104026020016040519081016040528092919081815260200182805461143590613ecb565b80156114825780601f1061145757610100808354040283529160200191611482565b820191906000526020600020905b81548152906001019060200180831161146557829003601f168201915b50505050508152602001600482015481526020016005820160009054906101000a900460ff16151515158152505090508060a001516114f6576040517f08c379a00000000000000000000000000000000000000000000000000000000081526004016114ed9061406c565b60405180910390fd5b8060800151341461153c576040517f08c379a00000000000000000000000000000000000000000000000000000000081526004016115339061455c565b60405180910390fd5b600061154783611089565b90508073ffffffffffffffffffffffffffffffffffffffff166108fc349081150290604051600060405180830381858888f1935050505015801561158f573d6000803e3d6000fd5b5061159b8133856126cd565b600a6000848152602001908152602001600020819080600181540180825580915050600190039060005260206000200160009091909190916101000a81548173ffffffffffffffffffffffffffffffffffffffff021916908373ffffffffffffffffffffffffffffffffffffffff16021790555060006008600085815260200190815260200160002060050160006101000a81548160ff0219169083151502179055506001600960008373ffffffffffffffffffffffffffffffffffffffff1673ffffffffffffffffffffffffffffffffffffffff1681526020019081526020016000205461168a919061457c565b600960008373ffffffffffffffffffffffffffffffffffffffff1673ffffffffffffffffffffffffffffffffffffffff168152602001908152602001600020819055506001600960003373ffffffffffffffffffffffffffffffffffffffff1673ffffffffffffffffffffffffffffffffffffffff168152602001908152602001600020546117199190614424565b600960003373ffffffffffffffffffffffffffffffffffffffff1673ffffffffffffffffffffffffffffffffffffffff1681526020019081526020016000208190555042600b60003373ffffffffffffffffffffffffffffffffffffffff1673ffffffffffffffffffffffffffffffffffffffff1681526020019081526020016000208190555042600b60008373ffffffffffffffffffffffffffffffffffffffff1673ffffffffffffffffffffffffffffffffffffffff16815260200190815260200160002081905550505050565b60008060009054906101000a900473ffffffffffffffffffffffffffffffffffffffff16905090565b60606002805461182190613ecb565b80601f016020809104026020016040519081016040528092919081815260200182805461184d90613ecb565b801561189a5780601f1061186f5761010080835404028352916020019161189a565b820191906000526020600020905b81548152906001019060200180831161187d57829003601f168201915b5050505050905090565b606080600060075467ffffffffffffffff8111156118c5576118c46136e0565b5b6040519080825280602002602001820160405280156118fe57816020015b6118eb613236565b8152602001906001900390816118e35790505b509050600060075467ffffffffffffffff81111561191f5761191e6136e0565b5b60405190808252806020026020018201604052801561194d5781602001602082028036833780820191505090505b50905060005b600754811015611c1257600860008281526020019081526020016000206040518060c001604052908160008201805461198b90613ecb565b80601f01602080910402602001604051908101604052809291908181526020018280546119b790613ecb565b8015611a045780601f106119d957610100808354040283529160200191611a04565b820191906000526020600020905b8154815290600101906020018083116119e757829003601f168201915b505050505081526020016001820160009054906101000a900460ff166004811115611a3257611a316135e9565b5b6004811115611a4457611a436135e9565b5b8152602001600282018054611a5890613ecb565b80601f0160208091040260200160405190810160405280929190818152602001828054611a8490613ecb565b8015611ad15780601f10611aa657610100808354040283529160200191611ad1565b820191906000526020600020905b815481529060010190602001808311611ab457829003601f168201915b50505050508152602001600382018054611aea90613ecb565b80601f0160208091040260200160405190810160405280929190818152602001828054611b1690613ecb565b8015611b635780601f10611b3857610100808354040283529160200191611b63565b820191906000526020600020905b815481529060010190602001808311611b4657829003601f168201915b50505050508152602001600482015481526020016005820160009054906101000a900460ff161515151581525050838281518110611ba457611ba36145b0565b5b6020026020010181905250611bb881611089565b828281518110611bcb57611bca6145b0565b5b602002602001019073ffffffffffffffffffffffffffffffffffffffff16908173ffffffffffffffffffffffffffffffffffffffff16815250508080600101915050611953565b5081819350935050509091565b611c31611c2a612330565b838361283a565b5050565b60096020528060005260406000206000915090505481565b600a6020528160005260406000208181548110611c6957600080fd5b906000526020600020016000915091509054906101000a900473ffffffffffffffffffffffffffffffffffffffff1681565b611ca6848484610ac0565b611cba611cb1612330565b858585856129a9565b50505050565b600a81565b6060611cd08261226b565b506000611cdb612b5a565b90506000815111611cfb5760405180602001604052806000815250611d26565b80611d0584612b71565b604051602001611d1692919061461b565b6040516020818303038152906040525b915050919050565b6000600960003373ffffffffffffffffffffffffffffffffffffffff1673ffffffffffffffffffffffffffffffffffffffff16815260200190815260200160002054905090565b600b6020528060005260406000206000915090505481565b6000600660008473ffffffffffffffffffffffffffffffffffffffff1673ffffffffffffffffffffffffffffffffffffffff16815260200190815260200160002060008373ffffffffffffffffffffffffffffffffffffffff1673ffffffffffffffffffffffffffffffffffffffff16815260200190815260200160002060009054906101000a900460ff16905092915050565b611e29613236565b3373ffffffffffffffffffffffffffffffffffffffff16611e4983611089565b73ffffffffffffffffffffffffffffffffffffffff1614611e9f576040517f08c379a0000000000000000000000000000000000000000000000000000000008152600401611e9690613f6e565b60405180910390fd5b600860008381526020019081526020016000206040518060c0016040529081600082018054611ecd90613ecb565b80601f0160208091040260200160405190810160405280929190818152602001828054611ef990613ecb565b8015611f465780601f10611f1b57610100808354040283529160200191611f46565b820191906000526020600020905b815481529060010190602001808311611f2957829003601f168201915b505050505081526020016001820160009054906101000a900460ff166004811115611f7457611f736135e9565b5b6004811115611f8657611f856135e9565b5b8152602001600282018054611f9a90613ecb565b80601f0160208091040260200160405190810160405280929190818152602001828054611fc690613ecb565b80156120135780601f10611fe857610100808354040283529160200191612013565b820191906000526020600020905b815481529060010190602001808311611ff657829003601f168201915b5050505050815260200160038201805461202c90613ecb565b80601f016020809104026020016040519081016040528092919081815260200182805461205890613ecb565b80156120a55780601f1061207a576101008083540402835291602001916120a5565b820191906000526020600020905b81548152906001019060200180831161208857829003601f168201915b50505050508152602001600482015481526020016005820160009054906101000a900460ff1615151515815250509050919050565b6060600a600083815260200190815260200160002080548060200260200160405190810160405280929190818152602001828054801561216f57602002820191906000526020600020905b8160009054906101000a900473ffffffffffffffffffffffffffffffffffffffff1673ffffffffffffffffffffffffffffffffffffffff1681526020019060010190808311612125575b50505050509050919050565b612183612582565b600073ffffffffffffffffffffffffffffffffffffffff168173ffffffffffffffffffffffffffffffffffffffff16036121f55760006040517f1e4fbdf70000000000000000000000000000000000000000000000000000000081526004016121ec91906134a5565b60405180910390fd5b6121fe81612609565b50565b60007f01ffc9a7000000000000000000000000000000000000000000000000000000007bffffffffffffffffffffffffffffffffffffffffffffffffffffffff1916827bffffffffffffffffffffffffffffffffffffffffffffffffffffffff1916149050919050565b60008061227783612c3f565b9050600073ffffffffffffffffffffffffffffffffffffffff168173ffffffffffffffffffffffffffffffffffffffff16036122ea57826040517f7e2732890000000000000000000000000000000000000000000000000000000081526004016122e1919061353b565b60405180910390fd5b80915050919050565b60006005600083815260200190815260200160002060009054906101000a900473ffffffffffffffffffffffffffffffffffffffff169050919050565b600033905090565b6123458383836001612c7c565b505050565b60008061235684612c3f565b9050600073ffffffffffffffffffffffffffffffffffffffff168373ffffffffffffffffffffffffffffffffffffffff161461239857612397818486612e41565b5b600073ffffffffffffffffffffffffffffffffffffffff168173ffffffffffffffffffffffffffffffffffffffff1614612429576123da600085600080612c7c565b6001600460008373ffffffffffffffffffffffffffffffffffffffff1673ffffffffffffffffffffffffffffffffffffffff168152602001908152602001600020600082825403925050819055505b600073ffffffffffffffffffffffffffffffffffffffff168573ffffffffffffffffffffffffffffffffffffffff16146124ac576001600460008773ffffffffffffffffffffffffffffffffffffffff1673ffffffffffffffffffffffffffffffffffffffff168152602001908152602001600020600082825401925050819055505b846003600086815260200190815260200160002060006101000a81548173ffffffffffffffffffffffffffffffffffffffff021916908373ffffffffffffffffffffffffffffffffffffffff160217905550838573ffffffffffffffffffffffffffffffffffffffff168273ffffffffffffffffffffffffffffffffffffffff167fddf252ad1be2c89b69c2b068fc378daa952ba7f163c4a11628f55a4df523b3ef60405160405180910390a4809150509392505050565b61257e828260405180602001604052806000815250612f05565b5050565b61258a612330565b73ffffffffffffffffffffffffffffffffffffffff166125a86117e9565b73ffffffffffffffffffffffffffffffffffffffff1614612607576125cb612330565b6040517f118cdaa70000000000000000000000000000000000000000000000000000000081526004016125fe91906134a5565b60405180910390fd5b565b60008060009054906101000a900473ffffffffffffffffffffffffffffffffffffffff169050816000806101000a81548173ffffffffffffffffffffffffffffffffffffffff021916908373ffffffffffffffffffffffffffffffffffffffff1602179055508173ffffffffffffffffffffffffffffffffffffffff168173ffffffffffffffffffffffffffffffffffffffff167f8be0079c531659141344cd1fd0a4f28419497f9722a3daafe3b4186f6b6457e060405160405180910390a35050565b600073ffffffffffffffffffffffffffffffffffffffff168273ffffffffffffffffffffffffffffffffffffffff160361273f5760006040517f64a0ae9200000000000000000000000000000000000000000000000000000000815260040161273691906134a5565b60405180910390fd5b600061274d8383600061234a565b9050600073ffffffffffffffffffffffffffffffffffffffff168173ffffffffffffffffffffffffffffffffffffffff16036127c057816040517f7e2732890000000000000000000000000000000000000000000000000000000081526004016127b7919061353b565b60405180910390fd5b8373ffffffffffffffffffffffffffffffffffffffff168173ffffffffffffffffffffffffffffffffffffffff1614612834578382826040517f64283d7b00000000000000000000000000000000000000000000000000000000815260040161282b9392919061408c565b60405180910390fd5b50505050565b600073ffffffffffffffffffffffffffffffffffffffff168273ffffffffffffffffffffffffffffffffffffffff16036128ab57816040517f5b08ba180000000000000000000000000000000000000000000000000000000081526004016128a291906134a5565b60405180910390fd5b80600660008573ffffffffffffffffffffffffffffffffffffffff1673ffffffffffffffffffffffffffffffffffffffff16815260200190815260200160002060008473ffffffffffffffffffffffffffffffffffffffff1673ffffffffffffffffffffffffffffffffffffffff16815260200190815260200160002060006101000a81548160ff0219169083151502179055508173ffffffffffffffffffffffffffffffffffffffff168373ffffffffffffffffffffffffffffffffffffffff167f17307eab39ab6107e8899845ad3d59bd9653f200f220920489ca2b5937696c318360405161299c9190613334565b60405180910390a3505050565b60008373ffffffffffffffffffffffffffffffffffffffff163b1115612b53578273ffffffffffffffffffffffffffffffffffffffff1663150b7a02868685856040518563ffffffff1660e01b8152600401612a089493929190614694565b6020604051808303816000875af1925050508015612a4457506040513d601f19601f82011682018060405250810190612a4191906146f5565b60015b612ac8573d8060008114612a74576040519150601f19603f3d011682016040523d82523d6000602084013e612a79565b606091505b506000815103612ac057836040517f64a0ae92000000000000000000000000000000000000000000000000000000008152600401612ab791906134a5565b60405180910390fd5b805181602001fd5b63150b7a0260e01b7bffffffffffffffffffffffffffffffffffffffffffffffffffffffff1916817bffffffffffffffffffffffffffffffffffffffffffffffffffffffff191614612b5157836040517f64a0ae92000000000000000000000000000000000000000000000000000000008152600401612b4891906134a5565b60405180910390fd5b505b5050505050565b606060405180602001604052806000815250905090565b606060006001612b8084612f29565b01905060008167ffffffffffffffff811115612b9f57612b9e6136e0565b5b6040519080825280601f01601f191660200182016040528015612bd15781602001600182028036833780820191505090505b509050600082602001820190505b600115612c34578080600190039150507f3031323334353637383961626364656600000000000000000000000000000000600a86061a8153600a8581612c2857612c27614722565b5b04945060008503612bdf575b819350505050919050565b60006003600083815260200190815260200160002060009054906101000a900473ffffffffffffffffffffffffffffffffffffffff169050919050565b8080612cb55750600073ffffffffffffffffffffffffffffffffffffffff168273ffffffffffffffffffffffffffffffffffffffff1614155b15612de9576000612cc58461226b565b9050600073ffffffffffffffffffffffffffffffffffffffff168373ffffffffffffffffffffffffffffffffffffffff1614158015612d3057508273ffffffffffffffffffffffffffffffffffffffff168173ffffffffffffffffffffffffffffffffffffffff1614155b8015612d435750612d418184611d8d565b155b15612d8557826040517fa9fbf51f000000000000000000000000000000000000000000000000000000008152600401612d7c91906134a5565b60405180910390fd5b8115612de757838573ffffffffffffffffffffffffffffffffffffffff168273ffffffffffffffffffffffffffffffffffffffff167f8c5be1e5ebec7d5bd14f71427d1e84f3dd0314c0f7b2291e5b200ac8c7c3b92560405160405180910390a45b505b836005600085815260200190815260200160002060006101000a81548173ffffffffffffffffffffffffffffffffffffffff021916908373ffffffffffffffffffffffffffffffffffffffff16021790555050505050565b612e4c83838361307c565b612f0057600073ffffffffffffffffffffffffffffffffffffffff168373ffffffffffffffffffffffffffffffffffffffff1603612ec157806040517f7e273289000000000000000000000000000000000000000000000000000000008152600401612eb8919061353b565b60405180910390fd5b81816040517f177e802f000000000000000000000000000000000000000000000000000000008152600401612ef7929190614751565b60405180910390fd5b505050565b612f0f838361313d565b612f24612f1a612330565b60008585856129a9565b505050565b600080600090507a184f03e93ff9f4daa797ed6e38ed64bf6a1f0100000000000000008310612f87577a184f03e93ff9f4daa797ed6e38ed64bf6a1f0100000000000000008381612f7d57612f7c614722565b5b0492506040810190505b6d04ee2d6d415b85acef81000000008310612fc4576d04ee2d6d415b85acef81000000008381612fba57612fb9614722565b5b0492506020810190505b662386f26fc100008310612ff357662386f26fc100008381612fe957612fe8614722565b5b0492506010810190505b6305f5e100831061301c576305f5e100838161301257613011614722565b5b0492506008810190505b612710831061304157612710838161303757613036614722565b5b0492506004810190505b60648310613064576064838161305a57613059614722565b5b0492506002810190505b600a8310613073576001810190505b80915050919050565b60008073ffffffffffffffffffffffffffffffffffffffff168373ffffffffffffffffffffffffffffffffffffffff161415801561313457508273ffffffffffffffffffffffffffffffffffffffff168473ffffffffffffffffffffffffffffffffffffffff1614806130f557506130f48484611d8d565b5b8061313357508273ffffffffffffffffffffffffffffffffffffffff1661311b836122f3565b73ffffffffffffffffffffffffffffffffffffffff16145b5b90509392505050565b600073ffffffffffffffffffffffffffffffffffffffff168273ffffffffffffffffffffffffffffffffffffffff16036131af5760006040517f64a0ae920000000000000000000000000000000000000000000000000000000081526004016131a691906134a5565b60405180910390fd5b60006131bd8383600061234a565b9050600073ffffffffffffffffffffffffffffffffffffffff168173ffffffffffffffffffffffffffffffffffffffff16146132315760006040517f73c6ac6e00000000000000000000000000000000000000000000000000000000815260040161322891906134a5565b60405180910390fd5b505050565b6040518060c00160405280606081526020016000600481111561325c5761325b6135e9565b5b81526020016060815260200160608152602001600081526020016000151581525090565b6000604051905090565b600080fd5b600080fd5b60007fffffffff0000000000000000000000000000000000000000000000000000000082169050919050565b6132c981613294565b81146132d457600080fd5b50565b6000813590506132e6816132c0565b92915050565b6000602082840312156133025761330161328a565b5b6000613310848285016132d7565b91505092915050565b60008115159050919050565b61332e81613319565b82525050565b60006020820190506133496000830184613325565b92915050565b600081519050919050565b600082825260208201905092915050565b60005b8381101561338957808201518184015260208101905061336e565b60008484015250505050565b6000601f19601f8301169050919050565b60006133b18261334f565b6133bb818561335a565b93506133cb81856020860161336b565b6133d481613395565b840191505092915050565b600060208201905081810360008301526133f981846133a6565b905092915050565b6000819050919050565b61341481613401565b811461341f57600080fd5b50565b6000813590506134318161340b565b92915050565b60006020828403121561344d5761344c61328a565b5b600061345b84828501613422565b91505092915050565b600073ffffffffffffffffffffffffffffffffffffffff82169050919050565b600061348f82613464565b9050919050565b61349f81613484565b82525050565b60006020820190506134ba6000830184613496565b92915050565b6134c981613484565b81146134d457600080fd5b50565b6000813590506134e6816134c0565b92915050565b600080604083850312156135035761350261328a565b5b6000613511858286016134d7565b925050602061352285828601613422565b9150509250929050565b61353581613401565b82525050565b6000602082019050613550600083018461352c565b92915050565b60008060006060848603121561356f5761356e61328a565b5b600061357d868287016134d7565b935050602061358e868287016134d7565b925050604061359f86828701613422565b9150509250925092565b600080604083850312156135c0576135bf61328a565b5b60006135ce85828601613422565b92505060206135df85828601613422565b9150509250929050565b7f4e487b7100000000000000000000000000000000000000000000000000000000600052602160045260246000fd5b60058110613629576136286135e9565b5b50565b600081905061363a82613618565b919050565b600061364a8261362c565b9050919050565b61365a8161363f565b82525050565b600060c082019050818103600083015261367a81896133a6565b90506136896020830188613651565b818103604083015261369b81876133a6565b905081810360608301526136af81866133a6565b90506136be608083018561352c565b6136cb60a0830184613325565b979650505050505050565b600080fd5b600080fd5b7f4e487b7100000000000000000000000000000000000000000000000000000000600052604160045260246000fd5b61371882613395565b810181811067ffffffffffffffff82111715613737576137366136e0565b5b80604052505050565b600061374a613280565b9050613756828261370f565b919050565b600067ffffffffffffffff821115613776576137756136e0565b5b61377f82613395565b9050602081019050919050565b82818337600083830152505050565b60006137ae6137a98461375b565b613740565b9050828152602081018484840111156137ca576137c96136db565b5b6137d584828561378c565b509392505050565b600082601f8301126137f2576137f16136d6565b5b813561380284826020860161379b565b91505092915050565b6005811061381857600080fd5b50565b60008135905061382a8161380b565b92915050565b600080600080600060a0868803121561384c5761384b61328a565b5b600086013567ffffffffffffffff81111561386a5761386961328f565b5b613876888289016137dd565b95505060206138878882890161381b565b945050604086013567ffffffffffffffff8111156138a8576138a761328f565b5b6138b4888289016137dd565b935050606086013567ffffffffffffffff8111156138d5576138d461328f565b5b6138e1888289016137dd565b92505060806138f288828901613422565b9150509295509295909350565b6000602082840312156139155761391461328a565b5b6000613923848285016134d7565b91505092915050565b600081519050919050565b600082825260208201905092915050565b6000819050602082019050919050565b600082825260208201905092915050565b60006139748261334f565b61397e8185613958565b935061398e81856020860161336b565b61399781613395565b840191505092915050565b6139ab8161363f565b82525050565b6139ba81613401565b82525050565b6139c981613319565b82525050565b600060c08301600083015184820360008601526139ec8282613969565b9150506020830151613a0160208601826139a2565b5060408301518482036040860152613a198282613969565b91505060608301518482036060860152613a338282613969565b9150506080830151613a4860808601826139b1565b5060a0830151613a5b60a08601826139c0565b508091505092915050565b6000613a7283836139cf565b905092915050565b6000602082019050919050565b6000613a928261392c565b613a9c8185613937565b935083602082028501613aae85613948565b8060005b85811015613aea5784840389528151613acb8582613a66565b9450613ad683613a7a565b925060208a01995050600181019050613ab2565b50829750879550505050505092915050565b600081519050919050565b600082825260208201905092915050565b6000819050602082019050919050565b613b3181613484565b82525050565b6000613b438383613b28565b60208301905092915050565b6000602082019050919050565b6000613b6782613afc565b613b718185613b07565b9350613b7c83613b18565b8060005b83811015613bad578151613b948882613b37565b9750613b9f83613b4f565b925050600181019050613b80565b5085935050505092915050565b60006040820190508181036000830152613bd48185613a87565b90508181036020830152613be88184613b5c565b90509392505050565b613bfa81613319565b8114613c0557600080fd5b50565b600081359050613c1781613bf1565b92915050565b60008060408385031215613c3457613c3361328a565b5b6000613c42858286016134d7565b9250506020613c5385828601613c08565b9150509250929050565b600067ffffffffffffffff821115613c7857613c776136e0565b5b613c8182613395565b9050602081019050919050565b6000613ca1613c9c84613c5d565b613740565b905082815260208101848484011115613cbd57613cbc6136db565b5b613cc884828561378c565b509392505050565b600082601f830112613ce557613ce46136d6565b5b8135613cf5848260208601613c8e565b91505092915050565b60008060008060808587031215613d1857613d1761328a565b5b6000613d26878288016134d7565b9450506020613d37878288016134d7565b9350506040613d4887828801613422565b925050606085013567ffffffffffffffff811115613d6957613d6861328f565b5b613d7587828801613cd0565b91505092959194509250565b60008060408385031215613d9857613d9761328a565b5b6000613da6858286016134d7565b9250506020613db7858286016134d7565b9150509250929050565b600060c0830160008301518482036000860152613dde8282613969565b9150506020830151613df360208601826139a2565b5060408301518482036040860152613e0b8282613969565b91505060608301518482036060860152613e258282613969565b9150506080830151613e3a60808601826139b1565b5060a0830151613e4d60a08601826139c0565b508091505092915050565b60006020820190508181036000830152613e728184613dc1565b905092915050565b60006020820190508181036000830152613e948184613b5c565b905092915050565b7f4e487b7100000000000000000000000000000000000000000000000000000000600052602260045260246000fd5b60006002820490506001821680613ee357607f821691505b602082108103613ef657613ef5613e9c565b5b50919050565b7f566f7573206e276574657320706173206c652070726f7072696574616972652060008201527f6465206365747465206f65757672650000000000000000000000000000000000602082015250565b6000613f58602f8361335a565b9150613f6382613efc565b604082019050919050565b60006020820190508181036000830152613f8781613f4b565b9050919050565b7f566f7573206176657a2061747465696e74206c61206c696d6974652064276f6560008201527f757672657320706f737365646565730000000000000000000000000000000000602082015250565b6000613fea602f8361335a565b9150613ff582613f8e565b604082019050919050565b6000602082019050818103600083015261401981613fdd565b9050919050565b7f4c276f6575767265206e276573742070617320656e2076656e74650000000000600082015250565b6000614056601b8361335a565b915061406182614020565b602082019050919050565b6000602082019050818103600083015261408581614049565b9050919050565b60006060820190506140a16000830186613496565b6140ae602083018561352c565b6140bb6040830184613496565b949350505050565b7f4c65207072697820646f69742065747265207375706572696575722061203000600082015250565b60006140f9601f8361335a565b9150614104826140c3565b602082019050919050565b60006020820190508181036000830152614128816140ec565b9050919050565b60008190508160005260206000209050919050565b60006020601f8301049050919050565b600082821b905092915050565b6000600883026141917fffffffffffffffffffffffffffffffffffffffffffffffffffffffffffffffff82614154565b61419b8683614154565b95508019841693508086168417925050509392505050565b6000819050919050565b60006141d86141d36141ce84613401565b6141b3565b613401565b9050919050565b6000819050919050565b6141f2836141bd565b6142066141fe826141df565b848454614161565b825550505050565b600090565b61421b61420e565b6142268184846141e9565b505050565b5b8181101561424a5761423f600082614213565b60018101905061422c565b5050565b601f82111561428f576142608161412f565b61426984614144565b81016020851015614278578190505b61428c61428485614144565b83018261422b565b50505b505050565b600082821c905092915050565b60006142b260001984600802614294565b1980831691505092915050565b60006142cb83836142a1565b9150826002028217905092915050565b6142e48261334f565b67ffffffffffffffff8111156142fd576142fc6136e0565b5b6143078254613ecb565b61431282828561424e565b600060209050601f8311600181146143455760008415614333578287015190505b61433d85826142bf565b8655506143a5565b601f1984166143538661412f565b60005b8281101561437b57848901518255600182019150602085019450602081019050614356565b868310156143985784890151614394601f8916826142a1565b8355505b6001600288020188555050505b505050505050565b7f4e487b7100000000000000000000000000000000000000000000000000000000600052601160045260246000fd5b60006143e782613401565b91507fffffffffffffffffffffffffffffffffffffffffffffffffffffffffffffffff8203614419576144186143ad565b5b600182019050919050565b600061442f82613401565b915061443a83613401565b9250828201905080821115614452576144516143ad565b5b92915050565b7f566575696c6c657a20617474656e647265206176616e7420646520666169726560008201527f20756e65206e6f7576656c6c65207472616e73616374696f6e00000000000000602082015250565b60006144b460398361335a565b91506144bf82614458565b604082019050919050565b600060208201905081810360008301526144e3816144a7565b9050919050565b7f4c65206d6f6e74616e7420656e766f7965206e6520636f72726573706f6e642060008201527f7061732061752070726978206465206c276f6575767265000000000000000000602082015250565b600061454660378361335a565b9150614551826144ea565b604082019050919050565b6000602082019050818103600083015261457581614539565b9050919050565b600061458782613401565b915061459283613401565b92508282039050818111156145aa576145a96143ad565b5b92915050565b7f4e487b7100000000000000000000000000000000000000000000000000000000600052603260045260246000fd5b600081905092915050565b60006145f58261334f565b6145ff81856145df565b935061460f81856020860161336b565b80840191505092915050565b600061462782856145ea565b915061463382846145ea565b91508190509392505050565b600081519050919050565b600082825260208201905092915050565b60006146668261463f565b614670818561464a565b935061468081856020860161336b565b61468981613395565b840191505092915050565b60006080820190506146a96000830187613496565b6146b66020830186613496565b6146c3604083018561352c565b81810360608301526146d5818461465b565b905095945050505050565b6000815190506146ef816132c0565b92915050565b60006020828403121561470b5761470a61328a565b5b6000614719848285016146e0565b91505092915050565b7f4e487b7100000000000000000000000000000000000000000000000000000000600052601260045260246000fd5b60006040820190506147666000830185613496565b614773602083018461352c565b939250505056fea264697066735822122007326cce9d013b290ace85c1a3a6e703f6175d160663951ec62fe388db06b99a64736f6c634300081c0033",
  "linkReferences": {},
  "deployedLinkReferences": {}
}